:020000040800F2
:1000000058080020B5010008973D0008D9370008BE
:10001000953D0008611A0008E54200080000000054
:100020000000000000000000000000009B3D0008F0
:10003000631A000800000000993D00089D3D00087B
:10004000CF010008CF010008CF010008CF01000850
:10005000CF010008CF010008CF010008CF01000840
:10006000CF010008CF010008CF010008CF01000830
:10007000CF010008CF010008CF010008CF01000820
:10008000CF010008CF010008CF010008CF01000810
:10009000CF010008CF010008CF010008CF01000800
:1000A000CF010008CF010008CF010008CF010008F0
:1000B000CF010008CF0100080D3E0008CF01000865
:1000C000CF010008CF010008CF010008CF010008D0
:1000D000CF010008D9420008CF010008CF01000875
:1000E000CF010008CF010008CF01000800F002F89E
:1000F00000F050F80AA090E8000C82448344AAF172
:100100000107DA4501D100F045F8AFF2090EBAE86F
:100110000F0013F0010F18BFFB1A43F0010318473B
:10012000745F0000945F0000103A24BF78C878C163
:10013000FAD8520724BF30C830C144BF04680C60ED
:10014000704700000023002400250026103A28BF35
:1001500078C1FBD8520728BF30C148BF0B60704739
:10016000662905F06786642900F0588000207047F2
:100170001FB500F0DBFC04000020002105F08AF828
:10018000401C60600020002105F06EF8E0601FBD9B
:1001900010B510BD00F090FF1146FFF7E9FF04F025
:1001A000D1F900F0B7FF03B4FFF7F2FF03BC00F092
:1001B000FBFF00000948804709480047FEE7FEE7CB
:1001C000FEE7FEE7FEE7FEE7FEE7FEE7FEE7FEE707
:1001D00004480549054A064B70470000093E0008DF
:1001E000ED000008580200205808002058040020A4
:1001F000580400200FB41CB5074B06AA7B4469467F
:100200000090059800F035FC0020694600F044FCA1
:100210001CBC5DF814FB0000990800002DE9F041BA
:100220000646002410687529314616A510D0AFF394
:100230000080002802DA404213A507E031688A07EF
:1002400001D512A502E0490704D511A5012401E05A
:10025000AFF3008000210A2206F1240709E0B0FB79
:10026000F2FCB0FBF2F302FB1C003030785418466D
:10027000491C0028F3D123462A463046BDE8F04108
:1002800000F089B9000000002D0000002B000000E4
:10029000200000002DE9F0474FF0000A894604468F
:1002A000C0F820A02046E1688847002876D025289D
:1002B00006D0D4E901219047206A401C2062F1E772
:1002C000E168204600258847C4F81CA006460027A0
:1002D000C4F818A02A2E09D0304604F09DF838B38F
:1002E00004EB8708303EC8F8186019E059F8041B81
:1002F000204604EB87029161E1688847012F06469A
:1003000018D1E069002820DA25F020051DE0D8F892
:10031000180000EB800006EB40003038C8F81800E9
:100320002046E1688847064604F076F80028EED1BA
:10033000012F0AD02E2E08D12046E16888477F1C65
:100340000646022F45F02005C4DBA069002803DA29
:10035000404245F00105A061E80701D025F01005F5
:10036000B6B1A6F14100192802D8203645F400653F
:100370004A463146204625604D46FFF7F1FE58B10A
:10038000012806D0ED1D25F0070000F1080989E7D6
:1003900004E005F1040985E730468AE7206ABDE8F4
:1003A000F08700000FB400B58DB010A9099000913E
:1003B0000B904FF0FF300A9000200C9006487844D4
:1003C0000690064878446A4607900F9909A800F0FD
:1003D0007DFB0DB05DF814FB2B0700004307000008
:1003E0002DE9FF5F1D464FF0FF3B91464FF000089F
:1003F0005F46D5E90146A96901987F1C8847296AAB
:10040000824688470028F6D1BAF1FF3F0CD0002E73
:1004100024F4C06419DD600614D5BAF12B0F09D09D
:10042000BAF12D0F0ED103E0584604B0BDE8F09F9D
:1004300044F48064A96901987F1C8847761E82462F
:10044000002E02DDBAF1300F03D0B9F1000F26D033
:1004500032E0A969761E01987F1C44F40074884735
:10046000002E824605DDBAF1780F06D0BAF1580F9A
:1004700003D0B9F1000F10D01EE0B9F1000F02D087
:10048000B9F1100F18D1A969761E01987F1C24F4C8
:10049000007488478246102002E0082000E00A200D
:1004A000814609E0A96908FB0908761E01987F1CAE
:1004B00044F4007488478246002E05DD49465046C4
:1004C00000F0EFFA0028EDDAE96901988847A00505
:1004D00002D46FF00100A8E7E00725D1600613D52C
:1004E000600502D5C8F1000000E0404629680A1DF9
:1004F0002A600968220501D5087015E0220701D598
:10050000088011E008600FE02868011D296000687C
:10051000210502D580F8008006E0210702D5A0F869
:10052000008001E0C0F8008038467EE74FF000020E
:1005300000B5134694469646203922BFA0E80C50D9
:10054000A0E80C50B1F12001BFF4F7AF090728BFB4
:10055000A0E80C5048BF0CC05DF804EB890028BF30
:1005600040F8042B08BF704748BF20F8022B11F059
:10057000804F18BF00F8012B7047704770477047D5
:1005800010B500F0D7FA006810BD10B5044600F0B1
:10059000D1FA046010BD2DE9F0470D469946924608
:1005A000044600F124080168880604D5E06921F0BA
:1005B0001001216000E00120A84201DD471B00E09E
:1005C0000027A1697A1902EB0900081AA0612078B6
:1005D000C00602D42046AFF30080002608E0D4E92C
:1005E00001211AF806009047206A401C761C206200
:1005F0004E45F4DB2078C0060AD52046AFF30080D4
:1006000006E0D4E9012130209047206A401C206296
:10061000381EA7F10107F4DC07E0D4E9012118F83E
:1006200005009047206A401C2062281EA5F10105A4
:10063000F3DC2046AFF300802078000602D50220CC
:10064000BDE8F0870120FBE770472DE9FF4F0C461E
:100650001E464FF0FF378BB0D2E90001DDF8608015
:100660000A908A46C1F30A5505B93D46002108465D
:100670004FF00000BAF1000F00F4400005DA00EB83
:1006800080004FF4400101EA50004FEA9059B9F15F
:10069000010F00DDB9460A9850EA4A000ED044F630
:1006A0001050A5F2FF3545432F14B8F1000F1ED0AE
:1006B0007542291E1EDDC9F100021CE0B8F1010FD0
:1006C0004FF0000001D0302103E0F24305E0215457
:1006D000401CB042FBDB30460022002121540B9924
:1006E000C1F80880C1E900200FB0BDE8F08FBD1B44
:1006F0006D1CDEE74A4600DA694206A800F066FC97
:1007000006AB93E8070003AB83E8070050460A995D
:1007100000F051FD8DE80700A0F500501F38009053
:100720000398002D0ADD42F21F014A4608440023C7
:1007300003A90390684600F0BAFF09E0A0F5005055
:100740004A461F38002303A90390684600F0C4FFFF
:100750008DE807000004000C03D04FF0FF30410883
:1007600000E01046B8F1000F03D0002200921546B9
:100770001EE0751E05D400F0E1F9303262556D1EA1
:10078000F9D5B3460122084302D000227F1C04E0C1
:100790002078302801D100227F1E002A099784D0BA
:1007A0001DE0112D07DA00F0C9F9303262556D1CD9
:1007B00050EA0102F5D1084302D00098C8B10EE01A
:1007C0000021681E05E0235C625C63542254401ED5
:1007D000491C8142F7DBAB46A81B401E0990002054
:1007E00004F80B000B98099AC0F80880C0E9002BA8
:1007F0007AE711264FF0000857E72DE9F04F8846B9
:100800000446D21D22F0070191B0D1E90001CDE9E3
:100810000A0103F068FD02460B98C00F01D02D209D
:1008200007E02068810701D52B2002E0202101EAA2
:10083000C000032A099001D0072A05DB0346414680
:10084000204600F0C9F90BE12078800601D5E06967
:1008500000E00620B8F1650F814606D0B8F1660FBA
:1008600018D0B8F1670F70D131E00020B9F1110F45
:10087000009001DB112301E009F101030AAA01A99B
:100880000CA8FFF7E2FEDDE90C70002609F1010576
:10089000834647E001204B4600904FF000470AAAEC
:1008A00001A90CA8FFF7D1FEDDE90DB00C995D465A
:1008B000002610B909F101000D18B9EB050003D4A9
:1008C000C0F1FF3609F10105A5EB09002BE0B9F1F4
:1008D000010F01DA4FF001090020B9F1110F00906A
:1008E000484601DD112300E003460AAA01A90CA82D
:1008F000FFF7ABFEDDE90C704D46002683462078FD
:1009000000070AD4AB4500DA5D4601A8012D04DDDD
:10091000411911F8011C302907D04F4502DA17F1AF
:10092000040F04DA012082460FE06D1EEEE7002F6F
:1009300002DCED1B3E4403E0781CA84200DD7D1C78
:10094000B81B00F1010A4FF000472078000703D4DC
:10095000AA4501DB4FF0FF3A0021B7F1004F0DF13E
:1009600043088DF8431024D002202B23002F01DAF6
:100970007F422D230A21021EA0F1010000DC5FB19D
:1009800097FBF1FC97FBF1F201FB1C7C17460CF185
:10099000300C08F801CDEEE7A8F1010003702188C2
:1009A000090501D5452100E06521A0F1010800F805
:1009B000011C09980FA9A1EB0807FF1D00B1012038
:1009C000411901EBEA70A1693844081A401EA06180
:1009D0002078C00602D42046AFF30080099828B1E1
:1009E000D4E901219047206A401C20622078C0068B
:1009F00022D52046AFF300801EE0002E04DBB34575
:100A000002DD01A8805D00E03020D4E9012190479B
:100A1000206A401C2062761CAAF101005FEA000AED
:100A20000AD100F083F8C0680168405CD4E9012174
:100A30009047206A401C2062281EA5F10105DCDCDD
:100A400007E0D4E9012118F8010B9047206A401C07
:100A50002062381EA7F10107F3DC2046AFF30080C7
:100A6000032011B041E6000001694A1C02610878C8
:100A7000704700B58FB0CDE90131002105910549DE
:100A80007944CDE9031011466846FFF703FC0FB027
:100A900000BD0000E5FFFFFF0A6802F8010B0A60D5
:100AA00070473A2800D2303820F02002412A01D382
:100AB000A2F13700884201D34FF0FF3070470000A9
:100AC000026811441378016018467047D1600549E7
:100AD0007944516104497944116200211161114640
:100AE00000F0BAB8EDFFFFFFED000000426842B130
:100AF000016811F8013B23B1521EC0E900121846EB
:100B000070470121C160881E704742685AB1C368AE
:100B1000016843B983688B4205D0491E521CC0E965
:100B20000012002070474FF0FF30704700487047B8
:100B30001802002000487047F801002030B5B0F1DD
:100B40000A024FEA900E71F100034EEA817EB0EB8B
:100B50000E0061EB91014FEA101E4EEA017E10EB90
:100B60000E0041EB11114FEA102E4EEA016E10EB10
:100B70000E0041EB11214FEA104E4EEA014E10EBF0
:100B80000E0041EB1141401841F100014FEAD00045
:100B900040EA41704FEAD10110EB80054FEA810431
:100BA00044EA907444EB01046D1944EB0404521BB5
:100BB000A3414FF0000348BF0A3200D530BD401CAE
:100BC00041F1000130BD10B5044600F09BFA006809
:100BD000005D00F0010010BD2DE9F0411F46044604
:100BE00003260168072A01F4006004DB08B116A59A
:100BF00005E016A503E008B115A500E015A521F054
:100C000010002060A069C01EA0610FB1401EA0614D
:100C10002046AFF300804FB1D4E901213846904718
:100C2000206A401C2062C01C206206E0206AFAE7AD
:100C3000D4E9012115F8010B9047761EF8D2204621
:100C4000AFF30080BDE8F0814E414E006E616E0052
:100C5000494E4600696E66002DE9F34F4FF0000AD9
:100C60000C4656468DB001200C9001F10C000B9003
:100C700062690B9801219047051E2DD0252D2CD09F
:100C8000216A8847C0B162690B9801219047216AA7
:100C900088470028F7D16269411E0B98904700E011
:100CA000761CA1690D988847216A88470028F7D1EA
:100CB000E1690D988847DBE7A1690D988847A8424C
:100CC000074601D1761CD3E7E1690D9888477F1C60
:100CD00002D1BAF1000F6FD06CE162690B98002766
:100CE0003D46394690472A2804D162690B98012174
:100CF00090470125DFF8D08262690B980121904767
:100D0000A0F130010A290AD24745E5DC07EB87014B
:100D100000EB4107303FDFD445F01005ECE7E90672
:100D200001D46FF000476C280AD04C2814D06828F2
:100D300015D06A280DD074281CD07A281AD01DE04E
:100D400062690B98012190476C2802D045F0040598
:100D500014E045F002050DE045F020050AE0626967
:100D60000B9801219047682802D045F0080505E05E
:100D700045F4006562690B9801219047C4E9015769
:100D800065283DD019DC58287AD00CDC452837D0AE
:100D900004DC252826D041289ED131E046282FD0DA
:100DA000472899D12CE05B2877D0612828D0632888
:100DB0007CD0642823D15AE0F7E06F2848D008DCC3
:100DC00066281DD067281BD0692821D06E2816D12F
:100DD00027E0702845D0732868D0752847D0782838
:100DE0000DD14DE0A1690D988847252805463FF4AF
:100DF00069AFE1690D9888476D1C3FF46AAFD9E08F
:100E00000D9923466A466FF00100AFF30080C6E0FB
:100E100045F0400023464FF000026060A80736D43A
:100E20003EE0E8077FF447AF2068011D21600068BD
:100E3000290501D506701BE7290701D5068017E7AC
:100E4000A90703D5F117C0E9006111E706600FE7B4
:100E500045F0400023464FF008026060A80716D412
:100E60001EE040F60E0125EA0100606016E045F044
:100E7000400023464FF00A026060A80707D40FE045
:100E800045F040006060A80708D5234610220D9960
:100E90006FF00100AFF3008081E007E010222346ED
:100EA0000D996FF00100FFF79BFA78E04FF0000911
:100EB00063284F46C8464B46CB4602D05B2807D036
:100EC00039E02079C00601D40120A060012732E07A
:100ED0006269D4F80CB00B98012190475E2807D1C5
:100EE0004FF0010949466269D4F80CB00B9890475D
:100EF000216939B900210A4603AB43F82120491C76
:100F00000829FADBD8B3216949B308F101086269FD
:100F10000B98012190475D28F4D1B9F1000F09D059
:100F2000002003A951F82020D24341F82020401C82
:100F30000828F7DB03AB2069002820794FEA4070CE
:100F40001ED05B462246CDF80080CDE901970D9971
:100F500000286FF0010020DAAFF300801FE0C11716
:100F600003AA00EBD1614B1121F01F0102EB8302B8
:100F7000411A13680120884003431360C7E719E052
:100F80000D99224600286FF00100009702DAAFF3B6
:100F9000008004E0AFF3008001E0AFF300800028A0
:100FA0000ADA401C06D10C9820B14FF0FF300FB088
:100FB000BDE8F08F5046FAE7E90701D10AF1010ACE
:100FC000064400200C9053E6CCCCCC0C2DE9F04725
:100FD000814616468AB0354878440DC88DE80D0024
:100FE00032487844801C03AC0DC884E80D0041F6FB
:100FF0009B300844372190FBF1F290FBF1F5A5F10D
:10100000800501FB12041B3C02D56442012000E074
:101010000020DFF898A080460027FA44AAF1BE0A13
:101020000EE0E0070AD03246684607EB470101238D
:101030000AEB810100F050FB8DE8070064107F1C73
:10104000002CEED1194F7F44AE3F19E0E80715D0D0
:1010500007EB04100DF1180A90E80E008AE80E0064
:10106000C068F04201D1981908903246012306A9C0
:1010700003A800F031FB03AB83E807006D10641C8C
:10108000002DE3D14FF0010332466946B8F1000F5D
:1010900003A802D000F00BFB01E000F01DFBC9E942
:1010A0000001C9F808200AB0BDE8F087A050000090
:1010B00000487047F80100207546FFF7F9FFAE467B
:1010C00005006946534620F00700854618B020B554
:1010D000FFF77EF8BDE820404FF000064FF0000714
:1010E0004FF000084FF0000B21F00701AC46ACE8D0
:1010F000C009ACE8C009ACE8C009ACE8C0098D463D
:101100007047000010B5FFF711FD001D10BD00BFB6
:101110008541000010B50446AFF300802046BDE8CD
:101120001040FFF740B800004FF0013C50F8042B8E
:1011300051F8043B9A4221D1A2EB0C03934313EAEA
:10114000CC1317D150F8042B51F8043B9A4215D117
:10115000A2EB0C03934313EACC130BD150F8042BEE
:1011600051F8043B9A4209D1A2EB0C03934313EAD2
:10117000CC13DBD04FF00000704700BFD01A01BA8B
:10118000B1FA81F101F0180122FA01F0CB40C1F16E
:101190002001DBB2C0B2C01A2CFA01F3D11A91437C
:1011A00011EAC311E6D1704701491820ABBEFEE732
:1011B0002600020070475FEA400C08BF91F0000F64
:1011C0004FEA8C234FEAC12243EA51514FEA1C50A7
:1011D00018BF00F5F0404FEA300018BF41F0004161
:1011E0005FEA6C5C00F02980BCF1FF3F08BF40F073
:1011F00080407047130C06BF12044FF0100C4FF0E4
:10120000000C130E04BF12020CF1080C130F04BFE4
:1012100012010CF1040C930F04BF92000CF1020CAC
:10122000D30F04BF52000CF1010C11464FF0000225
:10123000A0F11F00A0EB0C00704711F0004F08BF99
:10124000704731F000413FF4D5AF0B0C06BF0904E5
:101250004FF0100C4FF0000C0B0E04BF09020CF104
:10126000080C0B0F04BF09010CF1040C8B0F04BF19
:1012700089000CF1020CCB0F04BF49000CF1010CEA
:10128000CCF12003A0EB0C0022FA03F302FA0CF2DB
:1012900041EA030100F10100704720F07F4C80EA31
:1012A000030023F07F47ACEB070303F57C5300F00A
:1012B000004003F1FF032DE980494FEA154B09B4C3
:1012C0004FEA144325EA0B4E24EA03480FF20426A2
:1012D00006EB132749083E785FEA320203FB0667F4
:1012E000C7F5000707FB06F64FEA54374FEAD64624
:1012F00006F1020607FB066CCCF1005C4FEA1C47C6
:101300002CEA074C07FB06F40CFB06F504EB15462C
:101310004FEA961634BF00204FF000404FEAD13715
:1013200006FB07FC4FEA1C4C0CFB0BF7D21B03FB24
:101330000CF761EB07010CFB0EF7B0EB074072EB0B
:1013400017420CFB08F734BFA2EB0742B2EB07428F
:1013500061EB17414FEA0C444FEA910706FB07FC8B
:101360004FEA1C4C0CFB0BF7B0EBC74072EB57324B
:1013700003FB0CF734BFA2EBC742B2EBC74261EBF1
:1013800057310CFB0EF7B0EBC70072EB57720CFB3A
:1013900008F734BFA2EBC702B2EBC70261EB57718B
:1013A000039F4FEA816141EA921104EBCC044FEABA
:1013B000D1374FEA826206FB07FC42EA90124FEAFD
:1013C00080604FEA1C4C0CFB0BF7D21B03FB0CF7A5
:1013D00061EB07010CFB0EF7B0EB074072EB174215
:1013E0000CFB08F734BFA2EB0742B2EB074261EBFC
:1013F00017414FEA8C554FEA910704EB9C2406FBFA
:1014000007FC4FEA1C4C0CFB0BF7B0EBC74072EB30
:10141000573203FB0CF734BFA2EBC742B2EBC74213
:1014200061EB57310CFB0EF7B0EBC70072EB577254
:101430000CFB08F734BFA2EBC702B2EBC70261EBAB
:10144000577115EB4C254FEA816141EA92114FEA41
:1014500082624FEAD13742EA901206FB07FC44F160
:1014600000044FEA80604FEA1C4C0CFB0BF7D21BC8
:1014700003FB0CF761EB07010CFB0EF7B0EB074029
:1014800072EB17420CFB08F734BFA2EB0742B2EB3A
:10149000074261EB174115EB1C154FEA813141EA18
:1014A00092414FEA823242EA90424FEA80304FEA5C
:1014B0000C7644F1000448EA03434EEA0B484FF02F
:1014C000000EB2EB080C71EB030724BF62463946ED
:1014D0004EEB0E0E4FF0000B0018524149414BEB02
:1014E0000B0BB2EB080C71EB03077BF1000B24BF75
:1014F000624639464EEB0E0E4FF0000B001852417B
:1015000049414BEB0B0BB2EB080C71EB03077BF182
:10151000000B24BF624639464EEB0E0E51EA02071D
:1015200018BF46F0010616EB0E7655F1000254F195
:10153000000103D5BDE88901BDE80088BDE8890147
:10154000BDE80048B619524141EB0101A3F1010386
:10155000704780807F7E7D7C7B7A79787776767520
:101560007473727171706F6E6E6D6C6C6B6A6A6998
:101570006868676666656464636362616160605F32
:101580005F5E5E5D5D5C5C5B5B5A5A5959585857AB
:101590005756565555555454535352525251515013
:1015A00050504F4F4F4E4E4D4D4D4C4C4C4B4B4B66
:1015B0004A4A4A49494948484847474747464646AC
:1015C00045454544444444434343434242424241E7
:1015D0004141002B9C4630D477002BD01CB54FEAFC
:1015E000370703B44FF010004FF01001BAF1000FAD
:1015F00006D0BCF1000FDCBF40F0080040F008014D
:101600004FF000000FBCBDE810400BF1010BBBF127
:10161000010F08BF5FEA170722BF12F1010211F1A3
:1016200001014FF0004143F1000300F0004043EAA4
:1016300000007047F9D35708D0E746EA064613F191
:10164000400F4FEA16461FDD13F1200FDFBF164390
:101650000A46002120335B42BED0C3F1200746EA90
:10166000064602FA07F74FEA164646EA0706C3F1AE
:10167000200722FA03F201FA07F721FA03F14FF0EB
:10168000000342EA0702A7E746EA020646EA0646E0
:101690004FEA164646EA0106BCBF46EA0646360C45
:1016A0004FF000034FF000024FF0000194E72DE9E6
:1016B000804C9A46934670B491E8380007C831EAE6
:1016C000400C48BF34EA430C03D5FFF7E6FDFFF7B3
:1016D00080FFF0BCBDE8008C2DE9804C9A46934613
:1016E00070B491E8380007C810F0804F08BF13F0BD
:1016F000804F03D100F005F8FFF76BFFF0BCBDE8A9
:10170000008C20F07F4780EA030023F07F4C07EB3A
:101710000C03A3F57C5300F00040A3F1FE0392F00C
:10172000000F00F0B38095F0000F00F077802DE9F6
:1017300001494FEA11404FEA144621EA004800FBF4
:1017400006FC24EA064708FB06F607FB08F800FB40
:1017500007F718EB06484CEB164C4FEA124B18EB08
:1017600007484FEA15464CEB174022EA0B4E0BFB9D
:1017700006FC25EA06470EFB06F607FB0EFE0BFBF2
:1017800007F71EEB064E4CEB164C4FF000061EEB17
:10179000074E4CEB174B18EB0B0840F1000018EB11
:1017A0000E0B58EB000840F100008F1A4FF00001BB
:1017B0003CBFC943661B14BFB5EB040C00213CBF02
:1017C000C943F61B4FEA17444EEA8E0E27EA04453A
:1017D0004FEA1C4704FB07622CEA074C05FB07F79E
:1017E0000CFB05F604FB0CFC16EB074642EB17421C
:1017F00016EB0C4642EB1C421BEB060658EB0202B2
:10180000414146EA9E0601D5BDE80189B61952411B
:1018100041EB0101A3F10103BDE801894FEA144541
:101820004FEA114724EA054621EA074C05FB07F475
:1018300006FB07F70CFB06F105FB0CFC11EB07415F
:1018400044EB17444FEA124711EB0C4144EB1C44A4
:1018500022EA074C05FB07F206FB07F70CFB06F62E
:1018600005FB0CFC16EB074642EB174216EB0C4649
:1018700042EB1C456A1854F1000148BF7047B61985
:10188000524141EB0101A3F10103704795F0000FB4
:1018900037D04FEA11424FEA144721EA024624EAC0
:1018A000074C02FB07F106FB07F70CFB06F402FBF3
:1018B0000CFC14EB074441EB17414FEA154714EBBE
:1018C0000C4441EB1C4125EA074C02FB07F506FBE3
:1018D00007F70CFB06F602FB0CFC16EB074645EB84
:1018E000174516EB0C4645EB1C42121951F100014D
:1018F00048BF7047B619524141EB0101A3F1010302
:1019000070474FEA14454FEA114724EA054621EA99
:10191000074C05FB07F106FB07F70CFB06F24FF03F
:10192000000605FB0CFC12EB074241EB174112EBE2
:101930000C4251EB1C4148BF7047921841EB01012A
:10194000A3F101037047000070B504460068816888
:10195000C943C90717D1816821F00101816000F0F6
:1019600059FC05460AE000BF00F054FC401B022869
:1019700004D920688068C043C00706D0206880680A
:10198000C043C007F0D0002070BDA06A40F0100036
:10199000A062E06A40F00100E062012070BD00003A
:1019A000F8B500260446009600688168C943C90757
:1019B0002DD0816841F00101816016481649006808
:1019C000B0FBF1F000E0401E00900028FBD100F0D9
:1019D00021FC054616E000BF00F01CFC401B02285D
:1019E00010D920688068C043C0070BD0A06A40F0BF
:1019F0001000A062E06A40F00100E06284F8246018
:101A00000120F8BD20688068C043C007E4D10020F1
:101A1000F8BD00001800002040420F003EB50E4AFD
:101A2000D2E901128DE8070069460C4800F01AF867
:101A300008B172B6FEE7094800F0EEF94FF0FF3149
:101A4000064800F04BF9054800F08AF884B20348D4
:101A500000F042FA20463EBD285F00082C0000201E
:101A6000FEE77047F8B50024009490F8242025463E
:101A7000012A12D0012280F824204A681F23072A55
:101A80000DD20668776B521E02EB820293409F4391
:101A90000B6893401F43776319E00220F8BD066886
:101AA0000D2A0AD2376BD21F02EB820293409F436A
:101AB0000B6893401F43376309E0F76A0D3A02EB66
:101AC000820293409F430B6893401F43F7620A686A
:101AD000072306680A2A0AD3F7680A3A02EB420289
:101AE00093409F438B6893401F43F76008E037693A
:101AF00002EB420293409F438B6893401F43376140
:101B00000A68102A01D0112A20D1124B02689A4289
:101B100017D193681B0219D4936843F400039360B0
:101B20000968102912D10C490C4A0968B1FBF2F17D
:101B300001EB8101490000E0491E00910029FBD121
:101B400004E0816A41F020018162012480F8245080
:101B50002046F8BD002401401800002040420F003C
:101B60000068C06C704700002DE9F0414FF000079D
:101B700004003D467ED0A06A002628B9E66284F8BB
:101B80002460204600F07EF82046FFF7DDFEA16AC3
:101B9000C90600D420B1A06A40F01000A06269E03C
:101BA000A16A21F4885141F00201A1626268E169F1
:101BB000237B0A4347EA43010A43A1684FF4807735
:101BC000B94209D0012907D05FF0000194F814C090
:101BD000BCF1010F02D00AE03946F7E7F3B1A36A7E
:101BE00043F02003A362E36A43F00103E362236846
:101BF000D3F804C02CF4694C4CEA010CC3F804C0BF
:101C000021688B68DFF870C003EA0C0313438B6014
:101C1000A168B9420BD0012909D00CE0DFF85CC003
:101C2000A3690CEB43330B4343F40061DFE7218AE4
:101C30000D05A5F580152168CB6A23F470032B43AD
:101C4000CB62216889680E4B1940914208D1E66247
:101C5000A16A21F0020141F00101A162BDE8F08119
:101C6000A06A20F0020040F01000A062E06A40F09C
:101C70000100E0620120F1E7FDF7E1FF00E0FFFF76
:101C8000FE0E1FFF00B585B0002100910191029169
:101C9000039100680E49884218D10E48816941F4C9
:101CA00000718161816901F400710491816941F0E1
:101CB000040181618069694600F0040004900620F7
:101CC000009003200190044800F0A2F905B000BD87
:101CD0000024014000100240000801402DE9F843B3
:101CE00000270D460446009700F094FA80462068CD
:101CF0008168C90508D5A06A40F02000A06284F878
:101D000024700120BDE8F8834168C90503D4C06A86
:101D100010F4700F2AD0022000F0A2FC3B490968A1
:101D2000B1FBF0F62068036939490B424FEA6101C3
:101D30004FEAA1121FD1C3684FEA611C13EA0C0FCE
:101D400019D103690B4225D1C068104222D1142059
:101D500023E0681C0AD02DB100F05CFAA0EB08006B
:101D6000A84203D920680068800725D5206800684C
:101D70008007EED52DE003690B4202D1C168114204
:101D800006D0026923490A4206D1C068084203D13D
:101D9000542002E0292000E0FC204643009816E091
:101DA000681C11D02DB100F035FAA0EB0800A84254
:101DB0000AD90098B04207D2A06A40F00400A0629D
:101DC00084F8247003209DE70098401C0090B042E6
:101DD000E6D321686FF012000860A06A40F400703A
:101DE000A06220688068C0F3424007280CD1207BA5
:101DF00050B9A06A20F48070A062A06AC00403D425
:101E0000A06A40F00100A06200207BE718000020DB
:101E1000244992244992240070B5044690F8240085
:101E200001280DD0012084F824002046FFF7B8FDDA
:101E300002004FF0000005D084F82400104670BD69
:101E4000022070BDA16A40F20123994341F48071E0
:101E5000A1621F4D23681F49AB4218D10E6816F4CA
:101E6000702F14D0A66A46F48016A6620E68760516
:101E700005D5A66A26F4005646F48056A662A66AE0
:101E8000F6040AD5E66A26F00606E66206E0A66AC9
:101E900026F48016A6625E68E9E7E06284F8240012
:101EA0006FF00200186020688368C3F34243072B79
:101EB00005D1A84208D1096811F4702F04D08168B7
:101EC00041F480118160B9E7816841F4A001F9E72C
:101ED000002801400424014010B5044690F8240075
:101EE000012807D0012084F824002046FFF72CFDAC
:101EF00010B107E0022010BDA16A21F4885141F021
:101F00000101A162002184F8241010BD10B590F8E1
:101F100021100022022905D00421816380F82020AD
:101F2000012010BD01680B6823F00E030B600168EF
:101F30000B6823F001030B6090F84030C46B012163
:101F400001FA03F3636080F8211080F82020104626
:101F500010BD000010B590F821100024022903D014
:101F60000421816301243DE001680A6822F00E0229
:101F70000A6001680A6822F001020A601A4A0168D0
:101F8000914201D1012121E0174A1432914201D13D
:101F900010211BE0144A2832914201D1891515E025
:101FA000114A3C32914201D189140FE00E4A50325D
:101FB000914202D14FF4803108E00B4A64329142E1
:101FC00002D14FF4801101E04FF08071064A083AC7
:101FD0005160012180F82110002180F82010416B10
:101FE00001B18847204610BD0800024070B5044684
:101FF00000F010F90546601C02D004480078044443
:1020000000F008F9401BA042FAD370BD0C0000207C
:102010002DE9F84FDFF8B8910024A9F1040B23460D
:102020000F2709F1040AABF1040EC9E00125A54010
:102030002A40AA427DD1674ED1F804C0ACEB060815
:10204000B44532D014DCBCF1030F3AD009DCBCF14A
:10205000000F2AD0BCF1010F1CD0BCF1020F31D10E
:102060001DE0BCF1110F17D0BCF1120F2AD119E0FD
:10207000B8F5881F19D006DCB8F5803F15D0B8F543
:10208000801F1FD111E0B8F5001F0ED0B8F5041F56
:1020900018D10AE0CB6815E0CB681B1D12E0CB68B5
:1020A00008330FE0CB680C330CE08B682BB1012BAD
:1020B0004FF0080303D0456104E0042302E005610A
:1020C00000E00023FF2A01D8064601E000F10406E3
:1020D0004FEA840501D9A5F12005D6F8008007FA5A
:1020E00005FC28EA0C0803FA05F548EA0508C6F8D5
:1020F00000804D68ED0062D5374DAE6946F00106AF
:10210000AE61AD6924F0030605F001050095334D7D
:1021100006EB050CDCF80850A607360F07FA06F8A0
:1021200025EA0805DFF8B880404503D14FF00008E4
:1021300017E044E0DFF8AC80404502D14FF00108E1
:102140000FE0DFF8A480404502D14FF0020808E01C
:10215000DFF89880404502D14FF0030801E04FF0CE
:10216000040808FA06F848EA0508CCF808804D6823
:10217000D9F80060ED024D4601D5164300E09643C4
:102180002E604D68DAF80060AD02554601D5164361
:1021900000E096432E604D68DBF80060AD035D46BD
:1021A00001D5164300E096432E604D68DEF80060CE
:1021B000ED03754601D5164300E096432E60641C7E
:1021C0000D682A46E5407FF431AFBDE8F88F000086
:1021D00008040140000011100010024000000140FE
:1021E00000080140000C01400010014000140140B3
:1021F0008068084000D001207047C26821EA0203CD
:102200000A4043EA0241016170470AB10161704727
:102210000904FBE701488068704700000C000020BB
:1022200070B5040025D094F83D00002520B984F84D
:102230003C50204600F04EF9242084F83D002068F0
:10224000016821F0010101602068016841F400414A
:1022500001602068016821F40041016000F05EFB2C
:102260004D4A6168914201D84C4900E04C4988428E
:1022700001D2012070BD4B492368B0FBF1F15E68CB
:1022800026F03F060E435E606368934206D94FF422
:10229000967359434FF47A73B1FBF3F12368491CE9
:1022A0001E6A26F03F06314319626168914210D8D8
:1022B0004900401EB0FBF1F2521CC2F30B02042A8B
:1022C00001D2042022E0B0FBF1F0401CC0F30B006F
:1022D0001CE0A268F2B301EBC10303EB0116431E3D
:1022E000B3FBF6F35B1C43F480431B0549D092B368
:1022F00001EBC10202EB0111401EB0FBF1F0401CEA
:10230000C0F30B0040F4804040F400402168CA69EB
:102310004CF6FF739A431043C861D4E90710014398
:102320002068026822F0C00211430160D4E9030171
:1023300001432068826848F2FF339A431143816069
:10234000D4E9050108432168CA6822F0FF0210435E
:10235000C86001E00EE016E02068016841F001016C
:1023600001602564202084F83D00256384F83E50F8
:10237000002070BD01EB4106431EB3FBF6F35B1C6E
:10238000B3E70120C2E701EB4101401EB0FBF1F0D1
:10239000401CC0F30B00B7E7A086010080841E003C
:1023A00000093D0040420F002DE9F84F1F469046BE
:1023B0008A460446DDF82890FFF72CFF054694F87E
:1023C0003D0020287FD11923012240492046009555
:1023D00001F094FA002876D194F83C00012872D0DC
:1023E000012084F83C0020680168C90703D1016816
:1023F00041F0010101602068016821F40061016081
:10240000212084F83D00102084F83E000026266438
:10241000C4F824806785608D20852D48E0622B46B6
:102420004A465146204601F0EFF990B920684169CB
:102430008069009036E02A464946204601F004FBB8
:1024400050B1206C042804D12068016841F4007167
:1024500001600120BDE8F88F606A2168007808619A
:10246000606A401C6062618D491E6185218D491E34
:1024700089B2218522685369DB435B070BD451B1D4
:1024800000781061606A401C6062608D401E60854B
:10249000208D401E20852A464946204601F002FA3A
:1024A0000028CED1208D0028C5D154F83D0B0168FD
:1024B00041F400710160202004F81E09E677667778
:1024C0000020C7E7FFE70220C4E700000200100079
:1024D0000000FFFF10B586B000210091019102912C
:1024E000039100680F4988421AD10F4CA06940F04F
:1024F0000800A061A069694600F008000490C020AF
:10250000009012200190032003900848FFF780FDFF
:10251000E06940F40010E061E06900F4001004900C
:1025200006B010BD0054004000100240000C0140F5
:102530000248816802781144816070470C000020D5
:10254000074810B5016841F010010160032000F058
:1025500075F80F2000F006F800F024F8002010BDF8
:102560000020024070B50D4D04464FF47A71287872
:10257000B1FBF0F00A490968B1FBF0F000F0A4FBF0
:1025800048B9102C07D200222146501E00F036F820
:1025900000206C6070BD012070BD00000C000020A8
:1025A000180000200C4808B5816941F001018161E3
:1025B000816901F001010091C16941F08051C1615F
:1025C000C06900F0805000900448416821F0E0614B
:1025D00041F00071416008BD001002400000014060
:1025E000002809DB00F01F02012191404009800012
:1025F00000F1E020C0F8001170470000F0B40E4B6D
:102600001B680C46C3F30223C3F10705042D00D950
:102610000425191D072901D2002300E0DB1E012635
:1026200006FA05F1491E214099409E40761E16404B
:102630003143F0BC01F06BBE0CED00E0064900F048
:10264000070208684FF6FF03184040EA0220034AD9
:1026500010430860704700000CED00E00000FA0530
:1026600010B501460020234C012922D0022939D07F
:1026700010291DD161682268D20119D51E48C1F305
:102680008342C903805C0AD561681B4AC1F340419B
:10269000921E515C194AB2FBF1F1484301E018491E
:1026A00048436168490203D440000321B0FBF1F0C4
:1026B00010BD226AC2F30121012903D1920701D57D
:1026C000C80310BD022905D1626A920702D549F6F6
:1026D000404010BD0329FCD121688903F9D54FF290
:1026E000244010BD00F02AF96168C1F38131491C12
:1026F0004900DBE700100240485F000800127A0042
:1027000000093D002DE9F84305460078354CC00727
:1027100054D0E0690026C00008D4E06940F0805041
:10272000E061E069012600F0805000902E480168C9
:10273000C90512D40168804641F480710160FFF739
:1027400069FD074605E000BFFFF764FDC01B642874
:1027500023D8D8F80000C005F6D5206A10F44070E0
:1027600021D0A98801F4407181421CD0206A1F4900
:10277000012220F440700A6000220A602062C00733
:1027800011D0FFF747FD074641F2883808E000BF47
:10279000FFF740FDC11B414502D90320BDE8F88386
:1027A000206A8007F4D5206A696820F440700843E5
:1027B00020621EB1E06920F08050E0612878800737
:1027C00005D56068A96820F4404008436060287817
:1027D000C00605D56068E96820F4800008436060A1
:1027E0000020DBE70010024000700040400442423D
:1027F0002DE9F0470F46050061D0434E306800F0E8
:102800000700B84209D2306820F007003843306032
:10281000306800F00700B84251D128683B4C81076E
:1028200012D5400703D5606840F4E0606060287806
:10283000000703D5606840F4605060606068A96874
:1028400020F0F000084360602878C00728D068684E
:10285000012810D02168022810D0890700292EDA1B
:10286000616821F0030101436160FFF7D3FC8046FA
:1028700041F288390DE021688903EFE78901EDE72E
:10288000FFF7C8FCA0EB0801494502D90320BDE8C9
:10289000F0876068696800F00C00B0EB810FEFD141
:1028A000306800F00700B8420BD9306820F007000C
:1028B00038433060306800F00700B84201D0012092
:1028C000E5E72878400705D56068E96820F4E0600E
:1028D000084360602878000706D56068296920F4FD
:1028E000605040EAC100606000F038F86168084A52
:1028F000C1F30311515CC8400649086006480068EE
:10290000FFF730FE0020C2E7002002400010024026
:10291000585F0008180000201000002004480549F6
:1029200000684968044AC1F30221515CC8407047FD
:102930001800002000100240685F000804480549A4
:1029400000684968044AC1F3C221515CC84070471D
:102950001800002000100240685F00080E4A51680D
:102960000E4801F00C03042B11D0082B0FD10C489A
:10297000C1F38343C903C05C0AD55168084AC1F357
:102980004041921E515C054A5043B0FBF1F0704744
:1029900004494843704700000010024000127A00CA
:1029A000365F000800093D002DE9F84F040070D0A3
:1029B0002078C04DC00749D06868C0F38100012865
:1029C00007D06868C0F38100022809D16868C00395
:1029D00006D52868800339D560680028E7D035E03F
:1029E0006068B0F5803F0BD010B1B0F5A02F11D0CA
:1029F000286820F480302860286820F4802002E0D5
:102A0000286840F480302860606890B1FFF702FCCD
:102A100006460AE0286840F480202860F0E700BFFE
:102A2000FFF7F8FB801B642873D828688003F7D56C
:102A30000CE0FFF7EFFB064605E000BFFFF7EAFBFF
:102A4000801B6428F0D828688003F7D420789A4E39
:102A500080074FF001094FF0000839D5686810F081
:102A60000C0F07D06868C0F38100022809D168689C
:102A7000C00306D42868800714D52069012808D12E
:102A800010E02069B0B1C6F80090FFF7C3FB07461D
:102A900005E00AE1FFF7BEFBC01B0228C4D8286886
:102AA0008007F7D52868616920F0F80040EAC10086
:102AB00028600DE0C6F80080FFF7ACFB074604E095
:102AC000FFF7A8FBC01B022823D828688007F7D48B
:102AD000207800072CD57948A169D9B1C0F80090B9
:102AE000FFF798FB074604E0FFF794FBC01B0228A2
:102AF0000FD8686A8007F7D571484FF4FA5100681B
:102B0000B0FBF1F0009000BF0098411E0091FAD296
:102B10000EE080E0C0F80080FFF77CFB074604E091
:102B2000FFF778FBC01B022875D8686A8007F7D4C6
:102B30002078400760D5E8690027C00008D4E8691C
:102B400040F08050E861E869012700F08050009073
:102B50005C480168C90513D40168834641F480715B
:102B60000160FFF757FB824606E000BFFFF752FB0C
:102B7000A0EB0A0064284ED8DBF80000C005F5D5AC
:102B8000E06801280AD008B1052813D0286A20F08F
:102B900001002862286A20F0040002E0286A40F060
:102BA00001002862E06841F2883B98B1FFF732FBF0
:102BB00082460BE0286A40F004002862EEE700BF7E
:102BC000FFF728FBA0EB0A0159455AD8286A80076D
:102BD000F6D50CE0FFF71EFB824605E0FFF71AFB77
:102BE000A0EB0A0159454CD8286A8007F6D41FB1DA
:102BF000E86920F08050E861E06988B36968C1F352
:102C00008101022944D00228C6F8608004D0FFF771
:102C100001FB044638E034E0FFF7FCFA074604E025
:102C2000FFF7F8FAC01B02282BD828688001F7D4D8
:102C3000206AB0F5803F05D16868A16820F40030B3
:102C400008436860D4E908010843696821F47411F5
:102C500008436860C6F86090FFF7DCFA044606E0B7
:102C600025E000BFFFF7D6FA001B022809D8286824
:102C70008001F7D51BE000BFFFF7CCFA001B02284C
:102C800002D90320BDE8F88F28688001F4D40EE053
:102C90000128F7D06868226A00F48031914204D19B
:102CA000616A00F47010884201D00120EAE7002038
:102CB000E8E7000000100240000042428004424267
:102CC000180000200070004010B5401EB0F1807F59
:102CD00001D3012010BD4FF0E02460610F21601787
:102CE00001F015FB0020A06107202061002010BD2D
:102CF0007047704710B590F83C20012A22D001227D
:102D000080F83C20CA688C6822F4407222434C68E8
:102D100022F4806222430C6822F4006222430C6990
:102D200022F4805222434C6922F400522243C969A2
:102D3000002322F480420A4301684A6480F83C3050
:102D4000002010BD022010BD70B590F83C20012A73
:102D500026D0012480F83C40022280F83D20036800
:102D60005A689D6822F070060A6832435A600D4B1B
:102D700002689A4208D0B2F1804F05D00A4B9A42BD
:102D800002D00A4B9A4204D1496825F080031943C6
:102D9000916080F83D40002180F83C10084670BDED
:102DA000022070BD002C01400004004000080040DB
:102DB00010B5040003D094F83D0010B107E00120E5
:102DC00010BD002084F83C00204600F01FF80220CF
:102DD00084F83D00211D206801F01EF8012084F8D0
:102DE000460084F83E0084F83F0084F8400084F8F0
:102DF000410084F8420084F8430084F8440084F8D9
:102E0000450084F83D00002010BD000008B5174AB9
:102E100001681748914207D1816941F400618161DD
:102E2000806900F400601EE0B1F1804F14D0114AB7
:102E3000914219D1C16941F00401C161C069002208
:102E400000F00400009011461E20FFF7D7FBBDE8FC
:102E500008401E20FFF7C4BBC16941F00101C161F8
:102E6000C06900F00100009008BD0000002C014086
:102E7000001002400008004090F83D10012901D0E8
:102E800001207047022180F83D100168CA6842F0B5
:102E90000102CA6000680B49884208D0B0F1804F37
:102EA00005D00949884202D00849884204D1816886
:102EB00001F00701062903D0016841F0010101601A
:102EC00000207047002C0140000400400008004032
:102ED00070B5044690F83C000025012817D0012663
:102EE00084F83C60022084F83D002068826822F06B
:102EF000770222F47F4282600868502838D00DDCC7
:102F000020284FD005DC90B3102811D14AE00220D0
:102F100070BD302846D040280AD13BE060282FD031
:102F200070280DD0B0F5805F03D0B0F5005F12D0EF
:102F3000012584F83D60002084F83C00284670BDDF
:102F4000CB68D1E90121206800F0A9FF20688168E1
:102F500041F0770109E0CB68D1E90121206800F058
:102F60009EFF2068816841F480418160E1E719E0BB
:102F7000CA684968206801F047F85021206806E0D7
:102F8000CA684968206801F050F86021206800F0A4
:102F900090FFCEE7CA684968206801F035F8402103
:102FA0002068F4E7226801461046F0E7704770B5E4
:102FB0000446006801694FF00005C943890715D42C
:102FC000C168C943890711D4E91E01610120207736
:102FD000206880698007204602D0FFF7E7FF04E001
:102FE00000F0EEF8204600F080F9257720680169AE
:102FF000C943490717D4C168C943490713D46FF0BF
:1030000004010161022020772068806910F4407F6C
:10301000204602D0FFF7CAFF04E000F0D1F82046B6
:1030200000F063F9257720680169C943090716D4C0
:10303000C168C943090712D46FF008010161042077
:1030400020772068C0698007204602D0FFF7AEFFD6
:1030500004E000F0B5F8204600F047F92577206835
:103060000169C943C90617D4C168C943C90613D445
:103070006FF010010161082020772068C06910F40A
:10308000407F204602D0FFF791FF04E000F098F85F
:10309000204600F02AF9257720680169C943C9074D
:1030A00008D1C168C943C90704D1891E01612046FE
:1030B00000F06AF920680169C943090609D4C168AA
:1030C000C943090605D46FF0800101612046FFF76E
:1030D0000FFE20680169C943490609D4C168C94384
:1030E000490605D46FF040010161204600F04DF91A
:1030F00020680169C94389060BD4C168C9438906A0
:1031000007D46FF0200101612046BDE87040FFF751
:10311000F0BD70BD10B586B0002100910191029103
:103120000391224B02682249022422489A4210D17C
:103130008A6942F004028A618969039401F00401FA
:103140000491C114CDE900146946FEF761FF06B091
:1031500010BDB2F1804FFAD18A6942F004028A614F
:103160008A6902F0040204928A6942F008028A61C4
:103170008969039401F0080104914FF40041CDE9FD
:1031800000146946FEF744FF0820CDE900046946B3
:1031900009480394FEF73CFF0848416821F4407158
:1031A00041F0E06141F480714160D0E7002C0140C2
:1031B0000010024000080140000C014000000140E6
:1031C000704770B5044690F83C0000260D46012873
:1031D0000FD0012084F83C006AB1042A1DD0082ACF
:1031E0002FD00C2A3FD00126002084F83C00304626
:1031F00070BD022070BD206800F064FE2068816907
:1032000041F0080181612068816921F00401816138
:10321000206881692A69114311E0206800F07AFE74
:103220002068816941F4006181612068816921F42D
:1032300080618161206881692A6941EA0221816196
:10324000D2E7206800F092FE2068C16941F00801D1
:10325000C1612068C16921F00401C1612068C169B0
:103260002A69114311E0206800F0ACFE2068C169B2
:1032700041F40061C1612068C16921F48061C161CC
:103280002068C1692A6941EA0221C161ACE710B531
:10329000040003D094F83D0010B107E0012010BDF8
:1032A000002084F83C00204600F01EF8022084F83C
:1032B0003D00211D206800F0AFFD012084F846008C
:1032C00084F83E0084F83F0084F8400084F8410010
:1032D00084F8420084F8430084F8440084F84500F0
:1032E00084F83D00002010BD7047704710B50446BB
:1032F000022249B104290ED0082913D094F84100C4
:10330000012816D0012010BD94F83E000128F9D103
:1033100084F83E200FE094F83F000128F2D184F8B1
:103320003F2008E094F840000128EBD184F84020C9
:1033300001E084F841200122206800F0A3FD0F493C
:103340002068884203D1426C42F400424264206803
:10335000884208D0B0F1804F05D00949884202D098
:103360000849884204D1816801F00701062903D089
:10337000016841F001010160002010BD002C0140F6
:1033800000040040000800407047704770477047D5
:10339000F8B5016804460868CA684B6910F00F0F59
:1033A0004FF0000559D003F0010602F4907737433F
:1033B00065D0C10705D0D10503D5616C41F001018D
:1033C0006164410705D5D90703D0616C41F0020162
:1033D0006164810705D5D90703D0616C41F0040110
:1033E0006164010707D502F02001314303D0616C0D
:1033F00041F008016164616C00293AD0800604D56F
:10340000900602D5204600F051FE20684069616CAC
:10341000C0F38010090700D460B3204600F01FFEFF
:1034200020684069400621D52068143050E8001F0C
:1034300021F0400140E80012002AF5D1E06BA8B16C
:103440006D494163E06BFEF785FD002811D0E06B0C
:10345000416B01B0BDE8F040084783060FD59306E5
:103460000DD52046BDE8F84000F020BE2046FFF70D
:103470008EFFF8BD2046FFF78AFF6564F8BD266B16
:103480002023012E7CD1C6067AD5D60678D50868C9
:103490004868009048694FF00206400640D5E16B4D
:1034A000086840680004000CE8D0A28D8242E5D98B
:1034B000E085886920282DD020680C3050E8001F56
:1034C00021F4807140E80012002AF5D12068143000
:1034D00050E8001F21F0010140E80012002AF5D158
:1034E0002068143050E8001F21F0400140E800122D
:1034F000002AF5D184F84230256320680C3050E86A
:10350000001F21F0100140E80012002AF5D1E06B05
:10351000FEF7FCFC6663A08DE18D401A81B22AE0C3
:10352000A08DE18D401A81B2E08D0028A6D000293F
:10353000A4D022680C3252E8000F20F4907042E8C8
:103540000007002FF5D12068143050E8002F22F03A
:10355000010240E80027002FF5D184F842302563AE
:1035600020680C3050E8002F22F0100240E80023C1
:10357000002BF5D166632046FFF708FFF8BDFFE793
:1035800005062BD5150629D594F841002128F5D13B
:10359000A068B0F5805F01D12069B0B1206A411CFC
:1035A0002162216800784860E08C401E0004000C15
:1035B000E084E3D12068C16821F08001C160206807
:1035C000C16841F04001C160D8E7206A0088C0F3BB
:1035D00008004860206A801C2062E5E74006CDD5DF
:1035E0005006CBD5CA68204622F04002CA6084F853
:1035F000413000F0F0F8C1E74F40000870B504001A
:1036000004D094F84100002510B106E0012070BDFF
:1036100084F84050204600F023F8242084F841002C
:103620002068C16821F40051C160204600F0A0FD6F
:103630002068016921F4904101612068416921F00D
:103640002A0141612068C16841F40051C16065648C
:10365000202084F8410084F842006563002070BD9A
:1036600030B585B00024009401940294039400685E
:10367000184988422CD11848816941F48041816100
:10368000816901F480410491816941F00401816103
:103690008069124D00F0040004904FF40070009017
:1036A000022001900320039069462846FEF7B0FCF3
:1036B0002815CDE90004694628460294FEF7A8FCC7
:1036C000002211462520FEF799FF2520FEF788FFEE
:1036D00005B030BD00380140001002400008014034
:1036E00090F84230202B01D00220704721B11AB14E
:1036F0000023036300F098BD0120704708B50068FF
:10370000084988420DD108490E2201F5B670FFF72D
:10371000E7FF06480090831E9A1F05A10248FCF7A8
:1037200041FE08BD003801401C00002008000020B8
:103730002564202564202564000000002DE9F8435D
:10374000044690F841001F4616460D46202802D038
:103750000220BDE8F8837DB176B1002060642120AD
:1037600084F84100FEF756FDA6848046E684A068F2
:10377000B0F5805F02D003E00120EAE7206910B1D4
:103780002E4600250EE000260CE08021204600F0A9
:1037900066FDA0B9AEB116F8010B21684860E08C57
:1037A000401EE084E08C43464FF000020097002862
:1037B000EBD14FF04001204600F051FD30B1032025
:1037C000C7E735F8020BC0F30800E6E7202084F8CD
:1037D00041000020BDE77047FEE701684A69D24317
:1037E00052050FD46FF480624A61002140F8301F07
:1037F000202242738173026942F004020261017364
:103800000120704700207047F8B50446C06A1E4684
:103810000D461746082807D0012805D010F5803F2F
:1038200002D0206B122804D12068016841F4807115
:103830000160134600224FF001112046009600F06F
:103840005DF840B120680068C00502D54FF40070F3
:1038500020640320F8BD2069B0F5804F0ED006200B
:10386000216800EAD51040F0F000086133463A467E
:103870000B49204600F08AF878B902E005F0FE0016
:1038800000E0E8B221680861054933463A46891FDD
:10389000204600F07BF80028DCD00120F8BD0000B5
:1038A0000800010070B516460D4604461EE020468D
:1038B000FFF793FF08B1012070BD681C16D0FEF71A
:1038C000A9FC801BA84200D885B920684069C04384
:1038D00040070BD5002044F8300F20216173A073FE
:1038E000216941F0200121612073E4E720684069EB
:1038F000C0434007DBD4002070BD00002DE9F04735
:10390000984617460D460446C1F30746DDF8209059
:103910002AE000BFB8F1FF3F26D0FEF77BFCA0EB0A
:103920000901414502D8B8F1000F1DD12068012ED0
:1039300016D0806925EA00000004000C12D0002097
:10394000B84211D1002044F8300F20216173A073D8
:10395000216941F02001216120730120BDE8F08739
:103960004069E7E70120EBE72068012E0AD0806973
:1039700025EA00000004000C06D00020B842C9D09F
:103980000020EBE74069F3E70120F7E72DE9F04776
:10399000984616460D4604464FF000094FF0200A9F
:1039A000C1F3074723E020684069C043400515D4B0
:1039B0002068016841F40071016021686FF4806043
:1039C0004861C4F8309084F83DA084F83E90216CA2
:1039D00041F00401216484F83C9021E0701C06D081
:1039E000FEF718FCA0EB0800B04203D816B1012F77
:1039F0001FD021E02068012F15D0806925EA000042
:103A00000004000C18D000BF44F8309F84F80DA0CB
:103A100084F80E90216941F02001216184F80C9016
:103A20000120BDE8F087406925EA00000004000C91
:103A3000EAD12068406901E02068806925EA000039
:103A40000004000CAFD1ECE770B516460D460446F5
:103A50001EE02046FFF7C1FE08B1012070BD681CC2
:103A600016D0FEF7D7FB801BA84200D885B9206886
:103A70004069C04300060BD5002044F8300F2021D8
:103A80006173A073216941F0200121612073E4E793
:103A900020684069C0430006DBD4002070BD0000F0
:103AA0003EB5002410480094019402940D498460AE
:103AB000016004730475012505614FF460214460C1
:103AC000C161FEF751F808B172B6FEE70095CDE985
:103AD000015469460448FDF7C5FF002801D072B6BD
:103AE000FEE73EBD002401402C0000202DE9F047F8
:103AF00086B000242D4800940194029403948169B7
:103B000041F010018161816901F010010491816926
:103B100041F004018161816901F00401049181692E
:103B200041F0080181618069DFF8848000F00800BD
:103B30004FF400550490002229464046FEF765FBED
:103B4000DFF87090002204214846FEF75EFBDFF8A4
:103B500068A06F10002239465046FEF756FB0095CC
:103B6000022601250396CDE9015469464046FEF739
:103B70004FFA4020CDE90004694650460294FEF712
:103B800047FA0420CDE90005CDE9024669464846DA
:103B9000FEF73EFA00970396CDE901546946504678
:103BA000FEF736FA06B0BDE8F087000000100240CC
:103BB00000100140000C01400008014010B596B013
:103BC00000240F9410941194129413941C2108A8AB
:103BD0001494FCF7ABFC20216846FCF7A7FC2848AE
:103BE0002649016041F63F71C0E901146321C0E933
:103BF000031444618461FFF7DBF808B172B6FEE795
:103C00004FF480500F900FA91D48FFF761F908B1DC
:103C100072B6FEE71A48FFF73AFB08B172B6FEE744
:103C2000139413A916481494FFF78EF808B172B6CE
:103C3000FEE76020CDE908040A940C940D940C2250
:103C400008A90F480E94FFF7BCFA08B172B6FEE758
:103C500000944FF40050CDE9044002940194039481
:103C6000694607480794FFF745F808B172B6FEE7C2
:103C70000348FFF74FFA16B010BD0000002C0140BA
:103C8000B000002010B58EB0002407940894099469
:103C90000A940B941C2168460C94FCF747FC2248BC
:103CA0004FF08041016040F21F31C0E90114C7218B
:103CB000C0E903148461FFF77BF808B172B6FEE730
:103CC0004FF48050079007A91748FFF701F908B192
:103CD00072B6FEE71448FFF7DAFA08B172B6FEE7EB
:103CE0000B940BA910480C94FFF72EF808B172B68C
:103CF000FEE76020CDE900040294002269460A48EC
:103D00000494FFF75EFA08B172B6FEE70422694632
:103D10000548FFF756FA08B172B6FEE70248FFF70A
:103D2000F9F90EB010BD0000F800002010B586B003
:103D300000241748009401940294039404941349B6
:103D4000059401600721C0E901144FF6FF71C0E935
:103D500003148461FFF72CF808B172B6FEE74FF444
:103D60008050009069460A48FFF7B2F808B172B671
:103D7000FEE7049404A906480594FEF7E5FF002831
:103D800001D072B6FEE706B010BD0000000800408A
:103D900040010020FEE7FEE770477047FEF7C8BB12
:103DA00030B593B028216846FCF7C0FB14210AA85F
:103DB000FCF7BCFB002401200F9402250490009521
:103DC0001020119405901094129407946846FEF701
:103DD000EBFD08B172B6FEE70F20CDE90A040C94A2
:103DE0000D9400210AA80E94FEF702FD08B172B6E8
:103DF000FEE70FA80F951194FEF784FC002801D070
:103E000072B6FEE713B030BD704700000148FFF7FF
:103E1000CEB8000040010020F0B50268164B174CE8
:103E2000174D4FF08047984205D0B84203D0A042CA
:103E300001D0A84203D122F070064A68324398426A
:103E400005D0B84203D0A04201D0A84203D122F449
:103E50004074CA6822434C6922F080022243026007
:103E60008A68C2620A688262984201D10969016364
:103E700001214161F0BD0000002C01400004004020
:103E80000008004010B501F01F030121046A9940A9
:103E90008C430462016A9A401143016210BD10B55F
:103EA000846842EA032224F47F440A432243826066
:103EB00010BD826822F070020A4342F0070181605F
:103EC0007047000030B5036A026A22F00102026204
:103ED0004268846924F073050C682C4323F00205C2
:103EE0008B682B430A4DA8420BD123F00805CB6801
:103EF00022F440722B434D6923F0040315438A6971
:103F00002A434260846149684163036230BD000016
:103F1000002C014030B5026A036A23F010030362EB
:103F2000436884690D6824F4E64444EA05248D68F6
:103F300022F0200242EA05120B4DA8420ED1CD68B4
:103F400022F0800242EA05124D6923F4406343EAFD
:103F500085038D6922F0400243EA85034360846152
:103F600049688163026230BD002C014030B5036AAC
:103F7000026A22F4807202624268C46923F4007308
:103F800024F073050C682C438D6843EA05230C4D1F
:103F9000A8420ED1CD6823F4006343EA05234D699E
:103FA00022F4405242EA05128D6923F4806342EA0A
:103FB00005124260C4614968C163036230BD0000FC
:103FC000002C014030B5046A026A22F48052026279
:103FD0004268C3690D6823F4E64343EA05238D680C
:103FE00024F4005444EA0534064DA84204D14D6936
:103FF00022F4804242EA85124260C361496801644A
:10400000046230BD002C014010B5036A046A24F03C
:1040100001040462846924F0F00444EA021423F0E9
:104020000A020A438461026210BD10B5036A046A81
:1040300024F010040462846923F0A00324F4704483
:1040400044EA023243EA01118261016210BD10B5F7
:10405000406A0021C185C184FFF799F910BD01684C
:104060000C3151E8002F22F4907241E80023002B1C
:10407000F5D10168143151E8002F22F0010241E826
:104080000023002BF5D1016B012909D101680C3106
:1040900051E8002F22F0100241E80023002BF5D157
:1040A000202180F8421000210163704708B590F884
:1040B0004210222901D0022008BD82684FF48053AB
:1040C0009A4201D1016921B1816A9A421BD04AB159
:1040D0000AE00268816A5268C2F308020A80816AB3
:1040E000891C08E0026972B10268526802F07F021E
:1040F0000A70816A491C8162C18D491E0904090C3C
:10410000C18503D01BE002685268F1E70168CA6804
:1041100022F02002CA600168CA6822F48072CA6074
:1041200001684A6922F001024A61202180F84210A8
:1041300000214163026B012A03D0FFF7DFFA002060
:1041400008BD016301680C3151E8002F22F0100214
:1041500041E80023002BF5D101680A68D20602D598
:104160000A6849680091818DFFF710F9E7E70000C0
:1041700070B5044600680169E26821F440511143BA
:1041800001612169A0680843616908432168CA6820
:1041900041F20C639A430243CA6020684169A269F4
:1041A00021F44071114341611E492068884202D1C7
:1041B000FEF7C4FB01E0FEF7B1FB00EBC00101EB31
:1041C0000012606864218000B2FBF0F3B3FBF1F3EE
:1041D0006FF018067343B2FBF0F5B2FBF0F605EB97
:1041E0008305322303EB0515B5FBF1F5B6FBF1F6BC
:1041F00005F0F00505EB0615B2FBF0F6B2FBF0F0AA
:10420000B0FBF1F06FF01802504306EB800003EBB7
:104210000010B0FBF1F0216800F00F002844886026
:1042200070BD00000038014081628285C285002196
:104230004164222180F84210016921B10168CA68F5
:1042400042F48072CA6001684A6942F001024A6120
:104250000068C16841F02001C160002070472DE96D
:10426000F041984617460E460446069D27E0681C16
:1042700025D02DB1FDF7CEFFA0EB0800A8421ED936
:1042800020680C3050E8001F21F4D07140E8001283
:10429000002AF5D12068143050E8001F21F00101F8
:1042A00040E80012002AF5D1202084F8410084F86B
:1042B0004200002084F840000320BDE8F08120681F
:1042C000006836EA000004D00020B842CFD00020B9
:1042D000F3E70120F9E700000148FFF759B80000B3
:1042E00088010020FEE7490050EAC12018BF0420E1
:1042F0004A0D18BF40F0010040F2FF72B2EB515F6F
:1043000008BF40F00200012808BF052070470907D8
:10431000090E002804DB00F1E02080F8001470474B
:1043200000F00F0000F1E02080F8141D70472DE927
:10433000F0414F1E00EBC7010446D1E900011546CC
:104340001E4637F006020DD02A46334601F062FAC7
:104350007F1E04EBC703D3E9002300F0B1FF37F061
:104360000602F1D1022F25D0042F13D0062F18BF3B
:10437000BDE8F0812A46334601F04CFAD4E90A231D
:1043800000F09EFF2A46334601F044FAD4E90823A0
:1043900000F096FF2A46334601F03CFAD4E90623A2
:1043A00000F08EFF2A46334601F034FAD4E90423A4
:1043B00000F086FF2A46334601F02CFAD4E90223A6
:1043C00000F07EFF2A46334601F024FAD4E90023A8
:1043D000BDE8F04100F074BF0022134610460149C9
:1043E00001F02AB80000F03F00F06ABF0022134637
:1043F0001046114601F020B840F2013200204FF083
:10440000E04101F04BBD0000024A0020110701F01D
:1044100045BD000001FDFFFF30380A2801D2012010
:104420007047002070470000044900220B685A6260
:1044300009684A6A8242FCD37047000040010020AC
:10444000012805D04031C8B240F0800000F030B8FB
:104450008031C8B2FAE710B5332000F029F83220D5
:1044600000F026F83220FDF7C1FD282000F020F8EA
:104470003220FDF7BBFD012000F01AF83220FDF7D5
:10448000B5FD062000F014F83220FDF7AFFD0C203A
:1044900000F00EF83220FDF7A9FD022000F008F828
:1044A0003220FDF7A3FDBDE810408020AFF300806F
:1044B0001CB500F0F00141F00C028DF8042041F031
:1044C000080100018DF8051040F00C018DF8061070
:1044D00040F008008DF8070064200090042301AA32
:1044E0004E210248FDF760FF1CBD00005C0000206B
:1044F0001CB500F0F00141F00D028DF8042041F0F0
:10450000090100018DF8051040F00D018DF806102D
:1045100040F009008DF8070064200090042301AAF0
:104520004E210248FDF740FF1CBD00005C0000204A
:1045300010B5044602E0641CFFF7DAFF207800287B
:10454000F9D110BD8AB0FDF7FBFFFFF729FCFFF79B
:10455000CDFAFFF7A5FA9B489949002401604FF472
:10456000E131C0E901140C21C460C0E90441846157
:10457000C461FFF743F808B172B6FEE7FFF71EFB10
:10458000FFF7D4FBFFF77EFB90488F494FF4804242
:1045900001608F49416000218160C0E903124161DF
:1045A0008161C1610162FDF73BFE08B172B6FEE7B1
:1045B000FFF751FF85480C215430FEF797FE8148E4
:1045C00000219038FEF792FE7E4804219038FEF7D5
:1045D0008DFE7C484838FEF74FFC7C490E2240395E
:1045E0007848FFF77DF8202101A8FBF79FFF002105
:1045F0000120FFF725FF77A0FFF79AFF3220FDF794
:10460000F5FC00210220FFF71BFF75A0FFF790FFCC
:104610003220FDF7EBFCDFF8D49100BF4FF40051DE
:104620007348FDF7EAFDDFF8CC814021444640465F
:10463000FDF7DEFD82464FF4805B0122594620469D
:10464000FDF7E3FD4FF48C70FFF7EEFE0120FDF760
:10465000E5F909900220FDF7E1F90090099801F0D1
:1046600089F802460B460020634900F0E5FE00226F
:10467000624B01F0CFF80022614B01F0F1FA002209
:10468000604B01F0C7F8604A604B00F0D5FE604A0D
:10469000604B00F0D7F8604A604B01F0BBF806466B
:1046A0000F46009801F066F85D4A5E4B01F0B2F8E3
:1046B0005D4A5E4B00F004FE002204460D461346A0
:1046C00001F06CF801D2002425463E4822462B46D4
:1046D00057A14830FBF78EFD0A210120FFF7B0FEFD
:1046E00038484830FFF724FF3220FDF77FFC35487B
:1046F00032463B464EA15C30FBF77CFD0A2102208E
:10470000FFF79EFE2F485C30FFF712FF002259464C
:104710004046FDF77AFD2820FFF786FEBAF1000F2C
:1047200005D0B9F806200999484691420ED3274989
:10473000B9F80020543109680A642249B9F8022006
:1047400090390B685A63B9F804001CE0028900999B
:1047500091420ED21D490288543109680A641948F1
:10476000B9F8021090380268516300680021816333
:104770000BE01649002054310968086411491422DD
:1047800090390B685A63096888632046294600F00F
:10479000ABFF04463046394600F0A6FF03465246BA
:1047A00025A101A80094FBF725FD0A23202201A9D9
:1047B0000448FEF7C3FF4FF47A70FDF717FC2DE7AE
:1047C0000038014088010020005400405C000020B7
:1047D000A086010050504D204275693A200000002B
:1047E00050504D20434F323A20000000000000207E
:1047F00000100140000801400000B04000001440DB
:104800000000F03F00002440B81E85EB51285340C3
:10481000D8D6B92C193706C0DE7C7E73DA035D402A
:104820009031772D211FB4BF3D0AD7A370ED5240C0
:10483000252E3166000000002564202564202564B3
:10484000000000002DE9F04D1D460C4698B01746BB
:1048500021F0004123F00043002814BF4FF0010C69
:104860004FF0000C0CEB440CFE4A0CEB02064FEA36
:10487000620C66452BD33E0018BF012606EB4506A9
:104880001644F94A964222D3F84A53EA070C02D05A
:10489000944205D148B918B000201146BDE8F08D0A
:1048A000002808BF4FF0000C01D04FF0010C0CEBBA
:1048B000440212F5001F0AD8002F14BF4FF0010C5C
:1048C0004FF0000C0CEB450212F5001F07D918B091
:1048D0003A462B462146BDE8F04DFFF785BD002244
:1048E000DFF88CA3002CB8BF534526DADFF884C369
:1048F0006345A8BF022220DADFF870C39C451CDCA8
:10490000DFF874C30CEB235CBCF1140F08DDCCF1B1
:10491000340627FA06FC0CFA06F6BE420DD108E072
:104920005FB9CCF1140623FA06FC0CFA06F69E4297
:1049300003D10CF00102C2F1020251EA000C19D1BC
:10494000002D17DA002C18BF022A01D0012A07D047
:104950000220FBF71AFE18B0BDE8F04DFFF73CBD92
:104960000220FBF712FEFFF737FD18B081F000417F
:10497000BDE8F08DB7F1000C6CD1534525D104F1A1
:10498000804212F5801201BF00280020B74918B0FC
:1049900008BFBDE8F08DB548884207DC002DA1BFF7
:1049A0006046294618B0BDE8F08D07E0281E05DAFC
:1049B00080F0004118B06046BDE8F08DAF49794401
:1049C000D1E9000118B0BDE8F08DDFF8A0C2634561
:1049D00025D1002D1FDA19B1514512D1D8B909E0FE
:1049E000002840F0EC82A24A214618B062F31E0172
:1049F000BDE8F08D0020214618B060F31E01BDE82F
:104A0000F08D08DA18B02346BDE8F04D02460020CC
:104A1000614600F011BD18B02146BDE8F08D51454A
:104A200018DAB5F1804F0DD0A5F1005CBCF1FF5C48
:104A300010D1B4F1000C0DDB18B06146BDE8F04DAB
:104A400000F0ECBB234618B00246BDE8F04D194615
:104A500000F0E0BE060024F0004C3BD1D9B1514536
:104A600033D1002C06DD002DA1BF0020514618B027
:104A7000BDE8F08D002C01DD002D1BDB002C13DACE
:104A8000002D11DB012A4FF0000014BF78497C494A
:104A900018B0BDE8F08D022A18BF002C0AD0012AF8
:104AA00008D1002C06DA0AE0002CB8BF002D11DA7C
:104AB000012A04D0002018B00146BDE8F08D18B0DE
:104AC00000204FF00041BDE8F08DA1F14050B0F161
:104AD0007F601AD0012000EBE47050EA020421D07C
:104AE000624C521E4FF0000B104304BF4FF0000BFE
:104AF000644C654883427CDD644A654893421FDD0F
:104B0000884217DB002D25DB37E0002C00DA4AB1A4
:104B1000022A0CBF01204FF0FF3018B0BDE8F04D65
:104B200000F011BE0120FBF730FD18B0BDE8F04DDC
:104B3000FFF75CBC4D4A8A4202DC002D0ADC1CE017
:104B4000814202DA002D18DA04E0484B994220DD58
:104B5000002D12DD0220FBF718FDFFF74DFC054686
:104B60000E46002253465846214600F053FE18B028
:104B700066F31E012846BDE8F08D0220FBF705FD17
:104B8000FFF742FC0A46214618B062F31E01BDE859
:104B9000F08D00223046614601F062F880460E46F4
:104BA0006FF0010201F07AF94FF05532394B00F005
:104BB00065FF4246334600F02DFE0022364B00F0E2
:104BC0005DFF82464246334604911046194600F086
:104BD00021FE5246049B00F01DFE8A4600904FF0D5
:104BE000C0422E4B4046314600F014FE2C4A2B4B5F
:104BF00000E027E0CDE906015146009800F00AFEEA
:104C000082460191274A284B4046314600F002FE79
:104C10005246019B01F024F882460B46024605915C
:104C2000DDE9060100F04CFBDDE90623002688469D
:104C3000304601F015F85246059B00F01FFF024672
:104C400000F07EB90020B1F5801F07DA352230462A
:104C5000614601F023F906466FF0340000EB215065
:104C600024E00000FFFF1F00FFFF0F000000F03FE7
:104C70000000F07F0000404301FCFFFF36160000FB
:104C80000000F0FF0000F0BF0000E0410000F04332
:104C9000FFFFEF3F5555D53F0000E03F4715F73F79
:104CA000FE822B6544DF5DF80BAE543EA0F2FF3070
:104CB0000190C1F3130040F07F6141F04051029137
:104CC000FE498842D8BF002004DDFD498142C8BFAB
:104CD000012001DD0D9008E000200D900198401C9E
:104CE00001900298A0F5801002900299F54878444E
:104CF0000B910D9900EBC100D0E900230F933046D2
:104D00000A920B9900F0ACFFCDE90601DDE90A211A
:104D100030460F9B00F0D4FA02460B460020EA49C9
:104D200000F08AFB059102460B460090DDE9060182
:104D300000F070FD1490E5488A464FF00008784472
:104D40000299006812904FF0005040EA61010D98FE
:104D50000F9B01EB804000F5002109910A9A1298FF
:104D600000F07EFF32460B9B00F088FE4246534621
:104D700000F050FD0646029140465146099B129AAA
:104D800000F048FDDDE9062300F078FE3246029B84
:104D900000F066FF059B009A00F03CFD0091149A1C
:104DA000049053461046194600F034FD064602466C
:104DB000C7480B46029106217844FFF7B8FACDE9BF
:104DC0000510029B32461046194600F023FDDDE92E
:104DD000053200F01FFD0591064653464046194630
:104DE000149A00F06DFA009B049A00F013FD32460D
:104DF000059B00F065FACDE9051042465346104682
:104E0000194600F007FD0022B24B02910A9000F013
:104E100057FADDE9053200F053FA0E464246AD4B33
:104E2000404600F01DFF029B0A9A00F019FFDDE9E1
:104E3000053200F023FE424602910A9033461046A6
:104E4000514600F0E7FCCDE906015346149A029959
:104E50000A9800F0DFFC8A460290334642460099E9
:104E6000049800F0D7FC5346029A00F029FA8246D3
:104E70000B4602460591DDE9060100F021FADDE965
:104E8000062300208846064600F0EAFE5246059BAF
:104E900000F0F4FD824609914FF060428E4B30469F
:104EA000414600F0B7FC049006918C4A8A4B50466C
:104EB000099900F0AFFC82460291894A894B30463D
:104EC000414600F0A7FC5246029B00F0F9F9864BE0
:104ED0007B440D9A03EBC203D3E9002300F0F0F901
:104EE0000E900791019800F02EFC0591DDE9061364
:104EF00082460E9A049800F0E3F97C4A7A440D9BAE
:104F000002EBC303D3E900230093029200F0D8F927
:104F10005246059B00F0D4F900268846524630469A
:104F2000059B00F09DFE009B029A00F099FE069BF7
:104F3000049A00F095FE079B0E9A00F09FFD024632
:104F400000200B4602903846294600F063FC82465A
:104F500001912B4638461946029A00F081FE3246EE
:104F6000434600F057FC5246019B00F0A9F9074662
:104F70008A46324643462946029800F04BFC0546D5
:104F80000E463A46534600F09BF9594A88469142EC
:104F900021DBA8EB020353EA000210D12A46334674
:104FA00000F05EFECDE90401524A534B38465146AB
:104FB00000F086F9DDE9042300F02AFD21D2022069
:104FC000FBF7E3FAFFF718FA0A46214618B062F336
:104FD0001E01BDE8F08D494B28F000429A4210D3E3
:104FE000474A08EB020353EA00027FF4C6AD2A46A3
:104FF000334600F035FE3A46534600F009FD7FF691
:10500000BCAD0022019228F000403E493E4A01EB2F
:105010002051824223DA481C4FF4801121FA00F01B
:1050200040443A4AC0F30A517A44394BA1F2FF3165
:10503000CB4020EA0303C0F3130040F48010C1F119
:105040001401C84012680190B8F1000FBCBF404283
:1050500001902846314600F003FE05460E462A46DA
:1050600033463846514600F02BF94FF000084246CF
:10507000284B4046059100F0CDFBCDE90601264ABC
:10508000264B4046059900F0C5FB009102902A4648
:1050900033464046059900F0E3FD3A46534600F09A
:1050A000EDFC1F4A1F4B00F0B5FB009B029A00F07D
:1050B00007F90746884602460B4635E08E980300FE
:1050C0007AB60B007E1200000000F03FB61200001E
:1050D000E41100000000084009C7EE3FFD033ADC80
:1050E000F5015B14E02F3EBEBC10000080100000F4
:1050F00000009040FE822B654715973C00CC904005
:1051000000346F3F01FCFFFF0000E03FCC0F0000C8
:10511000FFFF0F00432EE63F396CA80C615C20BEF8
:10512000EF39FAFE422EE63FDDE9060100F0C8F84D
:10513000DDE9062305460E4600F092FD3A46434659
:1051400000F09CFC0F462A46334600901046194654
:1051500000F060FB824602462E4888460B46052139
:105160007844FFF7E4F85246434600F053FB2A46E2
:10517000334600F083FC80468A463B46284631464B
:10518000009A00F047FB3B46009A00F099F8069120
:10519000009000224FF080434046514600F060FDF1
:1051A0000F460C90424653462846314600F032FBEB
:1051B0003B460C9A00F040F9069B009A00F050FD27
:1051C0002A46334600F04CFD0022134B00F056FCFB
:1051D000054601980E4601EB00510815002810DC29
:1051E00028463146019A00F059FEFFF77CF8042862
:1051F00008BFFFF709F928463146019A00F04EFE34
:1052000005460B4618B02A4658462146BDE8F04DE3
:1052100000F000BB6C0E00000000F03F2DE9F041F3
:1052200006460F4600F036FC041E0D4618BF01204E
:10523000284320F00040C0F17F6000F1E040C00F43
:105240000ED0301C18BF0120384320F00040C0F1C0
:105250007F6000F1E040C00F04BF0120FBF795F92B
:1052600020462946BDE8F08110B500290AD008780B
:10527000002807D005487844FBF756FF002801D0E6
:10528000002010BD0248784410BD00003E0E000012
:10529000360E000010B500290AD00878002807D083
:1052A00005487844FBF740FF002801D0002010BDDE
:1052B0000248784410BD00002E0E0000260E0000AB
:1052C00010B591EA030F48BF83F0004300F1D0848A
:1052D000841A71EB030C05D2121943EB0C03001B6B
:1052E00061EB0C01DFF824E14FEA1154A4EB135CED
:1052F0001EEA430F18BF9EEA445F73D023EA0E03F1
:10530000DCF1200E21EA045143F4801332D322FA57
:105310000CFE10EB0E0023FA0CFE41EB0E01CCF15B
:10532000200E03FA0EFE10EB0E0051F10001B1F554
:10533000801FCCF1200E32D201EB045112FA0EF292
:10534000BDE8104058BF7047401C38BF5FEA4202BA
:1053500018BF7047002814BF20F0010041F1000180
:105360004FEA410313F5001F38BF7047A1F1C04158
:1053700000F048BB012A43EB0302ACF1200CDCF146
:105380001F0E32BF4FF0000E23FA0CF310EB030098
:1053900041EB0451B4EB115FD0D0A1EB045101F506
:1053A000801149085FEA300001EB04510ED350F13F
:1053B000000038BF12FA0EFE08D1BDE81040C9E760
:1053C000401C38BF5FEA4202CAD1C3E7BDE81040C3
:1053D0004FEA410313F5001F38BF7047A1F1C041E8
:1053E00000F010BB9EEA445F08D011EA5E0FBDE8F2
:1053F000104004BF01F0004100207047BDE810409C
:1054000070B500F0B1FA00BF64FBBE3E0000E0FFE3
:1054100002494FF0000000F00FBD00BF0000F87F10
:10542000491058BFC1F140415B1058BFC3F1404320
:105430008B42EFF3008070472DE9C04130B4DFF8B4
:10544000A0C23CEA111418BF3CEA131400F0EC802F
:1054500081EA03051CEA111444EAD57418BF1CEA5A
:10546000131500F0C780A4EB05044FF0004545EA92
:10547000C12145EAC32341EA505143EA525304F1A2
:105480007F74994204F500344FEAC0204FEAC222EB
:1054900008BF904200F09C804FEA13650FF240165F
:1054A000765D4FEA134506FB05F7C7F1807706FBEB
:1054B00007F74FEAD737A7FB03687642C8F580386D
:1054C000A7FB06CE38BFA8F1010807FB08E64FF09E
:1054D000000EA6FB028CE6FB03CEDCF1000CCEF145
:1054E000004E38BFAEF1010EA6FB0C584FF000077E
:1054F0004FF00005E6FB0E87A1FB08C6A0FB07CE18
:1055000016EB0E0645F10005E1FB076515F1E04ECF
:105510007EBFA4F580345FEA46066D4116F1800730
:1055200045F100054FEA17274FEA066647EA056787
:10553000A6F1DE46B6F1805F4FEA15251FD9384641
:1055400024F0010C05EBC471BCF1FE6F01EB0C11F2
:1055500002D8F0BCBDE8008124425CBF01F5801E8A
:105560009EEAC47F02D4F0BCBDE80081244238D456
:10557000F0BCA1F1C041BDE8004100F043BA4FEAE0
:10558000D22242EA43524FEAD323A7FB02864FEAD4
:10559000D02040EA415007FB03661EEA0E0F4FEA97
:1055A000D12105FB026658BFA6EB0056B6EB0056AC
:1055B0004FEA520E4EEAC37E18EB0E0E56EB530E18
:1055C000BDD518EB02085E417F1C55F10005B6E71A
:1055D0004FF480154FF000074FF000064FF0000821
:1055E000ADE7F0BC4FF0000001F1C04101F0004117
:1055F000BDE8008111EA0C1F0CEA131500D00CE085
:1056000013EA0C1F00F025804FF00000F0BC81EA87
:10561000030101F00041BDE80081F0BCBDE800419C
:1056200081EA030100F0EEB9F0BCBDE8004170B5BD
:1056300000F09AF9097EFC3E00F007B881EA030108
:105640004FF0000001F00041704781EA030100F0D3
:10565000D9B9F0BCBDE800414FF0000021497047C6
:10566000FFFDFBF9F7F5F4F2F0EEEDEBE9E8E6E427
:10567000E3E1E0DEDDDBDAD8D7D5D4D3D1D0CFCDAE
:10568000CCCBCAC8C7C6C5C4C2C1C0BFBEBDBCBBE7
:10569000BAB9B8B7B6B5B4B3B2B1B0AFAEADACABE2
:1056A000AAA9A8A8A7A6A5A4A3A3A2A1A09F9F9EBC
:1056B0009D9C9C9B9A99999897979695959493936E
:1056C000929191908F8F8E8E8D8C8C8B8B8A898905
:1056D0008888878786858584848383828281818088
:1056E0000000FF070000F87F4FEA41034FEA5353E1
:1056F000A3F58063D3F11E03C8BFD3F1210C0CDDE9
:105700004FF0004242EAC12242EA505232FA03FC10
:105710008CEAE17CACEBE1707047102BC4BF002039
:10572000704703F5787CBCF1FF3F04D06FF0004276
:1057300082EA2100704770B500F016F94992248082
:1057400000207047F2E710F0004248BF4042B0FA34
:1057500080F310FA03F10AD0C3F11D0303F580634F
:105760004FEA415002EB035202EBD12170474FF058
:1057700000007047B0FA80F310FA03F10AD0C3F1C9
:105780001D0303F580634FEA41504FEA035202EBD9
:10579000D12170474FF000007047000051EA030C20
:1057A00017D41CF5801F58BFBCF5801F00F1068080
:1057B000994218BF704708BF9042704707D711F54C
:1057C000801F58BF13F5801F19D499427047894232
:1057D00070471CF5801F08D5BCF5801FF7D58B429C
:1057E00018BF704708BF824270474FF4001C1CEB83
:1057F000410F38BF1CEB430F01D28B42704770B58D
:1058000000F0B2F8922449004FF000514FF080535D
:10581000FFF706BEDFF848C170B51CEA111E1EBFB7
:105820001CEA13159EEA0C0F95EA0C0F00F06F802E
:1058300081EA030423EA4C134EEAD47E21EA4C1198
:1058400041F4801143F48013AE44A1FB024CA0FB51
:105850000365AEF17F7E361955EB0C05A1FB034CB9
:105860004CF10003A0FB021C16EB0C06654153F142
:105870000003094218BF46F0010613F4007F0BD164
:105880004FEA03314FEA0530340341EA155140EA4B
:1058900016506FF003020AE04FEAC3214FEAC52019
:1058A000F40241EA555140EA56506FF0020202EB11
:1058B0002E4201EB025585EACE710AD05FEA440C14
:1058C00018BF24F0004450F1000041F1000120EA2B
:1058D000D47040F2FE7C624500D270BDA84214BF75
:1058E0004FF080444FF04044002E08BF0024BEF12A
:1058F000806FA8BFA1F1C041BDE8704080F28280F6
:105900004FF0000001F1C04101F0004170479EEAF4
:105910000C0F0CEA131518BF95EA0C0F06D04FF0C8
:10592000000081EA030E0EF0004170BD00F01CF88B
:105930008900013E00F007B800F009B84FEA430CB7
:105940005FEA5C5C08D081EA030100F05BB84FEAD3
:10595000410C5FEA5C5CF6D14FF0000001497047F2
:105960000000FF070000F87F0EF1020E2EF0030E7C
:105970005EF8046B364205D4012A43EB030515F5A6
:10598000001F12D8012841EB010C1CF5001F0CD898
:105990000ED14FEAD17C15F5001F0CEB4C0C0CF12D
:1059A000020C08BF4CEBD37C04E04FF0080C01E084
:1059B0004FEAD37C0CEB4C0526FA05F606F00706F9
:1059C000B6F1040C06D20EEB860CBDE870404CF02C
:1059D000010C6047DFE80CF0090B02024FF00041B8
:1059E0004FF00000A1F5002170BD194610460128B6
:1059F00051EB010418BFD4F5001484BF002001F05E
:105A0000004170BD0808A0F500114FEA3101704750
:105A100053EA010C17D41CF5801F58BFBCF5801F3A
:105A200000F106808B4218BF704708BF8242704762
:105A300007D713F5801F58BF11F5801F19D48B426B
:105A400070479B4270471CF5801F08D5BCF5801F2E
:105A5000F7D5994218BF704708BF904270474FF47E
:105A6000001C1CEB430F38BF1CEB410F01D29942C5
:105A700070470FB40CBC03BCFFF7C1BE91EA030F23
:105A800010B581F000413FF523AC83F0004300F0F6
:105A9000EFB800002DE9F04101F5801CBCF5001FB6
:105AA000C0F2C3804FEA115C21EA0C510CF1FD0CED
:105AB00041F480115FEA5C0C0CF5C07C01D340001E
:105AC00049413DA4890241EA905187028E0E0A0C99
:105AD000A45D04FB04F602FB06F6C6F14046A4FBF7
