:020000040800F2
:10000000E0070020A5010008532900085926000830
:1000100051290008F10B0008A12E00080000000083
:100020000000000000000000000000005729000848
:10003000F30B0008000000005529000859290008AA
:10004000BF010008BF010008BF010008BF01000890
:10005000BF010008BF010008BF010008BF01000880
:10006000BF010008BF010008BF010008BF01000870
:10007000BF010008BF010008BF010008BF01000860
:10008000BF010008BF010008BF010008BF01000850
:10009000BF010008BF010008BF010008BF01000840
:1000A000BF010008BF010008BF010008BF01000830
:1000B000BF010008BF010008C9290008BF010008EE
:1000C000BF010008BF010008BF010008BF01000810
:1000D000BF010008952E0008BF010008BF010008FD
:1000E000BF010008BF010008BF01000800F002F8CE
:1000F00000F048F80AA090E8000C82448344AAF17A
:100100000107DA4501D100F03DF8AFF2090EBAE877
:100110000F0013F0010F18BFFB1A43F0010318473B
:10012000C42F0000E42F0000103A24BF78C878C123
:10013000FAD8520724BF30C830C144BF04680C60ED
:10014000704700000023002400250026103A28BF35
:1001500078C1FBD8520728BF30C148BF0B60704739
:10016000642900F08780002070471FB500F068FC0C
:1001700004000020002102F07BFF401C60601FBDD6
:1001800010B510BD00F020FC1146FFF7EEFF02F0A5
:10019000A5FE00F047FC03B4FFF7F2FF03BC00F03C
:1001A00093FC00000948804709480047FEE7FEE746
:1001B000FEE7FEE7FEE7FEE7FEE7FEE7FEE7FEE717
:1001C00004480549054A064B70470000C529000848
:1001D000ED000008E0010020E0070020E00300201F
:1001E000E00300200FB41CB5074B06AA7B44694608
:1001F0000090059800F0C7F90020694600F0D6F994
:100200001CBC5DF814FB0000BD0300002DE9F041AB
:100210000E460446002020622046E168884730B33D
:10022000252805D0D4E901219047206A401CF2E737
:10023000E168204600278847050018D0A5F1410055
:10024000192802D820354FF4006732462946204647
:100250002760FFF785FF40B1012804D0F61D26F086
:1002600007060836D8E7361DD6E72846DAE7206ABB
:10027000BDE8F0812DE9F04106460024106875299B
:10028000314616A510D0AFF30080002802DA4042B4
:1002900013A507E031688A0701D512A502E04907D6
:1002A00004D511A5012401E0AFF3008000210A224A
:1002B00006F1240709E0B0FBF2FCB0FBF2F302FB0D
:1002C0001C00303078541846491C0028F3D12346CE
:1002D0002A463046BDE8F04100F0F6B800000000C4
:1002E0002D0000002B000000200000000FB400B51E
:1002F0008DB010A9099000910B904FF0FF300A903B
:1003000000200C90064878440690064878446A46D7
:1003100007900F9909A800F063F90DB05DF814FB80
:10032000F70200000F0300002DE9FF5F1D464FF0AC
:10033000FF3B91464FF000085F46D5E90146A969A9
:1003400001987F1C8847296A824688470028F6D191
:10035000BAF1FF3F0CD0002E24F4C06419DD600612
:1003600014D5BAF12B0F09D0BAF12D0F0ED103E03D
:10037000584604B0BDE8F09F44F48064A969019830
:100380007F1C8847761E8246002E02DDBAF1300FB0
:1003900003D0B9F1000F26D032E0A969761E01988A
:1003A0007F1C44F400748847002E824605DDBAF1B4
:1003B000780F06D0BAF1580F03D0B9F1000F10D062
:1003C0001EE0B9F1000F02D0B9F1100F18D1A969E0
:1003D000761E01987F1C24F4007488478246102002
:1003E00002E0082000E00A20814609E0A96908FB34
:1003F0000908761E01987F1C44F4007488478246E1
:10040000002E05DD4946504600F0D5F80028EDDA0B
:10041000E96901988847A00502D46FF00100A8E7B8
:10042000E00725D1600613D5600502D5C8F10000AC
:1004300000E0404629680A1D2A600968220501D5A6
:10044000087015E0220701D5088011E008600FE070
:100450002868011D29600068210502D580F8008008
:1004600006E0210702D5A0F8008001E0C0F8008076
:1004700038467EE74FF0000200B513469446964694
:10048000203922BFA0E80C50A0E80C50B1F12001A7
:10049000BFF4F7AF090728BFA0E80C5048BF0CC055
:1004A0005DF804EB890028BF40F8042B08BF7047B3
:1004B00048BF20F8022B11F0804F18BF00F8012B25
:1004C00070477047704770472DE9F0470D469946D1
:1004D0009246044600F124080168880604D5E069C4
:1004E00021F01001216000E00120A84201DD471B3E
:1004F00000E00027A1697A1902EB0900081AA0613F
:100500002078C00602D42046AFF30080002608E021
:10051000D4E901211AF806009047206A401C761C95
:1005200020624E45F4DB2078C0060AD52046AFF3A2
:10053000008006E0D4E9012130209047206A401C69
:100540002062381EA7F10107F4DC07E0D4E901219D
:1005500018F805009047206A401C2062281EA5F16B
:100560000105F3DC2046AFF300802078000602D5B9
:100570000220BDE8F0870120FBE7000001694A1C6A
:1005800002610878704700B58FB0CDE901310021D4
:10059000059105497944CDE9031011466846FFF7F6
:1005A00035FE0FB000BD0000E5FFFFFF0A6802F84E
:1005B000010B0A6070473A2800D2303820F0200240
:1005C000412A01D3A2F13700884201D34FF0FF3016
:1005D00070470000026811441378016018467047A4
:1005E000D16005497944516104497944116200217F
:1005F0001161114600F02EB8EDFFFFFF530000001F
:10060000426842B1016811F8013B23B1521EC0E9B2
:100610000012184670470121C160881E7047426869
:100620005AB1C368016843B983688B4205D0491E3B
:10063000521CC0E90012002070474FF0FF30704795
:1006400010B5044600F0E6F90068005D00F0010016
:1006500010BD00002DE9F34F4FF0000A0C4656463E
:100660008DB001200C9001F10C000B9062690B9889
:1006700001219047051E2DD0252D2CD0216A8847B9
:10068000C0B162690B9801219047216A8847002810
:10069000F7D16269411E0B98904700E0761CA16972
:1006A0000D988847216A88470028F7D1E1690D989D
:1006B0008847DBE7A1690D988847A842074601D122
:1006C000761CD3E7E1690D9888477F1C02D1BAF107
:1006D000000F6FD06CE162690B9800273D463946E8
:1006E00090472A2804D162690B980121904701257F
:1006F000DFF8D08262690B9801219047A0F13001A8
:100700000A290AD24745E5DC07EB870100EB4107E0
:10071000303FDFD445F01005ECE7E90601D46FF077
:1007200000476C280AD04C2814D0682815D06A28B5
:100730000DD074281CD07A281AD01DE062690B985D
:10074000012190476C2802D045F0040514E045F0E3
:1007500002050DE045F020050AE062690B980121D1
:100760009047682802D045F0080505E045F400658B
:1007700062690B9801219047C4E9015765283DD073
:1007800019DC58287AD00CDC452837D004DC252821
:1007900026D041289ED131E046282FD0472899D134
:1007A0002CE05B2877D0612828D063287CD064288F
:1007B00023D15AE0F7E06F2848D008DC66281DD026
:1007C00067281BD0692821D06E2816D127E0702811
:1007D00045D0732868D0752847D078280DD14DE0D2
:1007E000A1690D988847252805463FF469AFE1695E
:1007F0000D9888476D1C3FF46AAFD9E00D992346E8
:100800006A466FF00100AFF30080C6E045F040009B
:1008100023464FF000026060A80736D43EE0E807A8
:100820007FF447AF2068011D21600068290501D5CC
:1008300006701BE7290701D5068017E7A90703D52E
:10084000F117C0E9006111E706600FE745F04000CD
:1008500023464FF008026060A80716D41EE040F659
:100860000E0125EA0100606016E045F040002346D5
:100870004FF00A026060A80707D40FE045F040007F
:100880006060A80708D5234610220D996FF001007B
:10089000AFF3008081E007E0102223460D996FF04E
:1008A0000100FFF741FD78E04FF0000963284F4653
:1008B000C8464B46CB4602D05B2807D039E02079AA
:1008C000C00601D40120A060012732E06269D4F89B
:1008D0000CB00B98012190475E2807D14FF0010919
:1008E00049466269D4F80CB00B989047216939B930
:1008F00000210A4603AB43F82120491C0829FADBF2
:10090000D8B3216949B308F1010862690B98012144
:1009100090475D28F4D1B9F1000F09D0002003A958
:1009200051F82020D24341F82020401C0828F7DB52
:1009300003AB2069002820794FEA40701ED05B4647
:100940002246CDF80080CDE901970D9900286FF07F
:10095000010020DAAFF300801FE0C11703AA00EB0B
:10096000D1614B1121F01F0102EB8302411A136880
:100970000120884003431360C7E719E00D99224620
:1009800000286FF00100009702DAAFF3008004E066
:10099000AFF3008001E0AFF3008000280ADA401CCA
:1009A00006D10C9820B14FF0FF300FB0BDE8F08FAA
:1009B0005046FAE7E90701D10AF1010A064400208E
:1009C0000C9053E6CCCCCC0C754600F035F8AE4616
:1009D00005006946534620F00700854618B020B54B
:1009E000FFF7EEFBBDE820404FF000064FF0000798
:1009F0004FF000084FF0000B21F00701AC46ACE8C7
:100A0000C009ACE8C009ACE8C009ACE8C0098D4633
:100A10007047000010B500F013F8001D10BD00BFB6
:100A20005126000010B50446AFF300802046BDE813
:100A30001040FFF7B0BB0000004870477C01002069
:100A4000004870479C0100204FF0013C50F8042BF7
:100A500051F8043B9A4221D1A2EB0C03934313EAD1
:100A6000CC1317D150F8042B51F8043B9A4215D1FE
:100A7000A2EB0C03934313EACC130BD150F8042BD5
:100A800051F8043B9A4209D1A2EB0C03934313EAB9
:100A9000CC13DBD04FF00000704700BFD01A01BA72
:100AA000B1FA81F101F0180122FA01F0CB40C1F155
:100AB0002001DBB2C0B2C01A2CFA01F3D11A914363
:100AC00011EAC311E6D1704701491820ABBEFEE719
:100AD000260002007047000070B504460068816877
:100AE000C943C90717D1816821F00101816000F075
:100AF00059FC05460AE000BF00F054FC401B0228E8
:100B000004D920688068C043C00706D02068806888
:100B1000C043C007F0D0002070BDA06A40F01000B4
:100B2000A062E06A40F00100E062012070BD0000B8
:100B3000F8B500260446009600688168C943C907D5
:100B40002DD0816841F00101816016481649006886
:100B5000B0FBF1F000E0401E00900028FBD100F057
:100B600021FC054616E000BF00F01CFC401B0228DB
:100B700010D920688068C043C0070BD0A06A40F03D
:100B80001000A062E06A40F00100E06284F8246096
:100B90000120F8BD20688068C043C007E4D1002070
:100BA000F8BD00001800002040420F003EB50E4A7C
:100BB000D2E901128DE8070069460C4800F01AF8E6
:100BC00008B172B6FEE7094800F0EEF94FF0FF31C8
:100BD000064800F04BF9054800F08AF884B2034853
:100BE00000F042FA20463EBD9C3000082C00002058
:100BF000FEE77047F8B50024009490F824202546BD
:100C0000012A12D0012280F824204A681F23072AD3
:100C10000DD20668776B521E02EB820293409F430F
:100C20000B6893401F43776319E00220F8BD066804
:100C30000D2A0AD2376BD21F02EB820293409F43E8
:100C40000B6893401F43376309E0F76A0D3A02EBE4
:100C5000820293409F430B6893401F43F7620A68E8
:100C6000072306680A2A0AD3F7680A3A02EB420207
:100C700093409F438B6893401F43F76008E03769B8
:100C800002EB420293409F438B6893401F433761BE
:100C90000A68102A01D0112A20D1124B02689A4208
:100CA00017D193681B0219D4936843F4000393602F
:100CB0000968102912D10C490C4A0968B1FBF2F1FC
:100CC00001EB8101490000E0491E00910029FBD1A0
:100CD00004E0816A41F020018162012480F82450FF
:100CE0002046F8BD002401401800002040420F00BB
:100CF0000068C06C704700002DE9F0414FF000071C
:100D000004003D467ED0A06A002628B9E66284F839
:100D10002460204600F07EF82046FFF7DDFEA16A41
:100D2000C90600D420B1A06A40F01000A06269E0BA
:100D3000A16A21F4885141F00201A1626268E1696F
:100D4000237B0A4347EA43010A43A1684FF48077B3
:100D5000B94209D0012907D05FF0000194F814C00E
:100D6000BCF1010F02D00AE03946F7E7F3B1A36AFC
:100D700043F02003A362E36A43F00103E3622368C4
:100D8000D3F804C02CF4694C4CEA010CC3F804C03D
:100D900021688B68DFF870C003EA0C0313438B6093
:100DA000A168B9420BD0012909D00CE0DFF85CC082
:100DB000A3690CEB43330B4343F40061DFE7218A63
:100DC0000D05A5F580152168CB6A23F470032B432C
:100DD000CB62216889680E4B1940914208D1E662C6
:100DE000A16A21F0020141F00101A162BDE8F08198
:100DF000A06A20F0020040F01000A062E06A40F01B
:100E00000100E0620120F1E7FDF7E1FF00E0FFFFF4
:100E1000FE0E1FFF00B585B00021009101910291E7
:100E2000039100680E49884218D10E48816941F447
:100E300000718161816901F400710491816941F05F
:100E4000040181618069694600F004000490062075
:100E5000009003200190044800F0A2F905B000BD05
:100E60000024014000100240000801402DE9F84331
:100E700000270D460446009700F094FA804620684B
:100E80008168C90508D5A06A40F02000A06284F8F6
:100E900024700120BDE8F8834168C90503D4C06A05
:100EA00010F4700F2AD0022000F01AFB3B490968A9
:100EB000B1FBF0F62068036939490B424FEA610142
:100EC0004FEAA1121FD1C3684FEA611C13EA0C0F4D
:100ED00019D103690B4225D1C068104222D11420D8
:100EE00023E0681C0AD02DB100F05CFAA0EB0800EA
:100EF000A84203D920680068800725D520680068CB
:100F00008007EED52DE003690B4202D1C168114282
:100F100006D0026923490A4206D1C068084203D1BB
:100F2000542002E0292000E0FC204643009816E00F
:100F3000681C11D02DB100F035FAA0EB0800A842D2
:100F40000AD90098B04207D2A06A40F00400A0621B
:100F500084F8247003209DE70098401C0090B04264
:100F6000E6D321686FF012000860A06A40F40070B8
:100F7000A06220688068C0F3424007280CD1207B23
:100F800050B9A06A20F48070A062A06AC00403D4A3
:100F9000A06A40F00100A06200207BE7180000205A
:100FA000244992244992240070B5044690F8240004
:100FB00001280DD0012084F824002046FFF7B8FD59
:100FC00002004FF0000005D084F82400104670BDE8
:100FD000022070BDA16A40F20123994341F480715F
:100FE000A1621F4D23681F49AB4218D10E6816F449
:100FF000702F14D0A66A46F48016A6620E68760595
:1010000005D5A66A26F4005646F48056A662A66A5E
:10101000F6040AD5E66A26F00606E66206E0A66A47
:1010200026F48016A6625E68E9E7E06284F8240090
:101030006FF00200186020688368C3F34243072BF7
:1010400005D1A84208D1096811F4702F04D0816835
:1010500041F480118160B9E7816841F4A001F9E7AA
:10106000002801400424014010B5044690F82400F3
:10107000012807D0012084F824002046FFF72CFD2A
:1010800010B107E0022010BDA16A21F4885141F09F
:101090000101A162002184F8241010BD10B590F860
:1010A00021100022022905D00421816380F820202C
:1010B000012010BD01680B6823F00E030B6001686E
:1010C0000B6823F001030B6090F84030C46B0121E2
:1010D00001FA03F3636080F8211080F820201046A5
:1010E00010BD000010B590F821100024022903D093
:1010F0000421816301243DE001680A6822F00E02A8
:101100000A6001680A6822F001020A601A4A01684E
:10111000914201D1012121E0174A1432914201D1BB
:1011200010211BE0144A2832914201D1891515E0A3
:10113000114A3C32914201D189140FE00E4A5032DB
:10114000914202D14FF4803108E00B4A643291425F
:1011500002D14FF4801101E04FF08071064A083A45
:101160005160012180F82110002180F82010416B8E
:1011700001B18847204610BD0800024070B5044602
:1011800000F010F90546601C02D0044800780444C1
:1011900000F008F9401BA042FAD370BD0C000020FB
:1011A0002DE9F84FDFF8B8910024A9F1040B23468C
:1011B0000F2709F1040AABF1040EC9E00125A5408F
:1011C0002A40AA427DD1674ED1F804C0ACEB060894
:1011D000B44532D014DCBCF1030F3AD009DCBCF1C9
:1011E000000F2AD0BCF1010F1CD0BCF1020F31D18D
:1011F0001DE0BCF1110F17D0BCF1120F2AD119E07C
:10120000B8F5881F19D006DCB8F5803F15D0B8F5C1
:10121000801F1FD111E0B8F5001F0ED0B8F5041FD4
:1012200018D10AE0CB6815E0CB681B1D12E0CB6833
:1012300008330FE0CB680C330CE08B682BB1012B2B
:101240004FF0080303D0456104E0042302E0056188
:1012500000E00023FF2A01D8064601E000F1040661
:101260004FEA840501D9A5F12005D6F8008007FAD8
:1012700005FC28EA0C0803FA05F548EA0508C6F853
:1012800000804D68ED0062D5374DAE6946F001062D
:10129000AE61AD6924F0030605F001050095334DFC
:1012A00006EB050CDCF80850A607360F07FA06F81F
:1012B00025EA0805DFF8B880404503D14FF0000863
:1012C00017E044E0DFF8AC80404502D14FF0010860
:1012D0000FE0DFF8A480404502D14FF0020808E09B
:1012E000DFF89880404502D14FF0030801E04FF04D
:1012F000040808FA06F848EA0508CCF808804D68A2
:10130000D9F80060ED024D4601D5164300E0964342
:101310002E604D68DAF80060AD02554601D51643DF
:1013200000E096432E604D68DBF80060AD035D463B
:1013300001D5164300E096432E604D68DEF800604C
:10134000ED03754601D5164300E096432E60641CFC
:101350000D682A46E5407FF431AFBDE8F88F000004
:10136000080401400000111000100240000001407C
:1013700000080140000C0140001001400014014031
:101380008068084000D001207047C26821EA02034B
:101390000A4043EA0241016170470AB101617047A6
:1013A0000904FBE701488068704700000C0000203A
:1013B0000248816802781144816070470C00002067
:1013C000074810B5016841F010010160032000F0EA
:1013D00075F80F2000F006F800F024F8002010BD8A
:1013E0000020024070B50D4D04464FF47A71287804
:1013F000B1FBF0F00A490968B1FBF0F000F0A4FB82
:1014000048B9102C07D200222146501E00F036F8B1
:1014100000206C6070BD012070BD00000C00002039
:10142000180000200C4808B5816941F00101816174
:10143000816901F001010091C16941F08051C161F0
:10144000C06900F0805000900448416821F0E061DC
:1014500041F00071416008BD0010024000000140F1
:10146000002809DB00F01F020121914040098000A3
:1014700000F1E020C0F8001170470000F0B40E4BFE
:101480001B680C46C3F30223C3F10705042D00D9E2
:101490000425191D072901D2002300E0DB1E0126C7
:1014A00006FA05F1491E214099409E40761E1640DD
:1014B0003143F0BC01F0F5BC0CED00E0064900F052
:1014C000070208684FF6FF03184040EA0220034A6B
:1014D00010430860704700000CED00E00000FA05C2
:1014E00010B501460020234C012922D0022939D011
:1014F00010291DD161682268D20119D51E48C1F397
:101500008342C903805C0AD561681B4AC1F340412C
:10151000921E515C194AB2FBF1F1484301E01849AF
:1015200048436168490203D440000321B0FBF1F055
:1015300010BD226AC2F30121012903D1920701D50E
:10154000C80310BD022905D1626A920702D549F687
:10155000404010BD0329FCD121688903F9D54FF221
:10156000244010BD00F02AF96168C1F38131491CA3
:101570004900DBE700100240BC30000800127A008E
:1015800000093D002DE9F84305460078354CC007B9
:1015900054D0E0690026C00008D4E06940F08050D3
:1015A000E061E069012600F0805000902E4801685B
:1015B000C90512D40168804641F480710160FFF7CB
:1015C000F1FE074605E000BFFFF7ECFEC01B6428F4
:1015D00023D8D8F80000C005F6D5206A10F4407072
:1015E00021D0A98801F4407181421CD0206A1F4992
:1015F000012220F440700A6000220A602062C007C5
:1016000011D0FFF7CFFE074641F2883808E000BF4F
:10161000FFF7C8FEC11B414502D90320BDE8F8838E
:10162000206A8007F4D5206A696820F44070084376
:1016300020621EB1E06920F08050E06128788007C8
:1016400005D56068A96820F44040084360602878A8
:10165000C00605D56068E96820F480000843606032
:101660000020DBE7001002400070004040044242CE
:101670002DE9F0470F46050061D0434E306800F079
:101680000700B84209D2306820F0070038433060C4
:10169000306800F00700B84251D128683B4C810700
:1016A00012D5400703D5606840F4E0606060287898
:1016B000000703D5606840F4605060606068A96806
:1016C00020F0F000084360602878C00728D06868E0
:1016D000012810D02168022810D0890700292EDAAD
:1016E000616821F0030101436160FFF75BFE804602
:1016F00041F288390DE021688903EFE78901EDE7C0
:10170000FFF750FEA0EB0801494502D90320BDE8D0
:10171000F0876068696800F00C00B0EB810FEFD1D2
:10172000306800F00700B8420BD9306820F007009D
:1017300038433060306800F00700B84201D0012023
:10174000E5E72878400705D56068E96820F4E0609F
:10175000084360602878000706D56068296920F48E
:10176000605040EAC100606000F038F86168084AE3
:10177000C1F30311515CC84006490860064800687F
:10178000FFF730FE0020C2E70020024000100240B8
:10179000CC30000818000020100000200448054943
:1017A00000684968044AC1F30221515CC84070478F
:1017B0001800002000100240DC30000804480549F1
:1017C00000684968044AC1F3C221515CC8407047AF
:1017D0001800002000100240DC3000080E4A51685A
:1017E0000E4801F00C03042B11D0082B0FD10C482C
:1017F000C1F38343C903C05C0AD55168084AC1F3E9
:101800004041921E515C054A5043B0FBF1F07047D5
:1018100004494843704700000010024000127A005B
:10182000AA30000800093D002DE9F84F040070D0EF
:101830002078C04DC00749D06868C0F381000128F6
:1018400007D06868C0F38100022809D16868C00326
:1018500006D52868800339D560680028E7D035E0D0
:101860006068B0F5803F0BD010B1B0F5A02F11D05B
:10187000286820F480302860286820F4802002E066
:10188000286840F480302860606890B1FFF78AFDD6
:1018900006460AE0286840F480202860F0E700BF90
:1018A000FFF780FD801B642873D828688003F7D574
:1018B0000CE0FFF777FD064605E000BFFFF772FD7D
:1018C000801B6428F0D828688003F7D420789A4ECB
:1018D00080074FF001094FF0000839D5686810F013
:1018E0000C0F07D06868C0F38100022809D168682E
:1018F000C00306D42868800714D52069012808D1C0
:1019000010E02069B0B1C6F80090FFF74BFD074624
:1019100005E00AE1FFF746FDC01B0228C4D828688D
:101920008007F7D52868616920F0F80040EAC10017
:1019300028600DE0C6F80080FFF734FD074604E09C
:10194000FFF730FDC01B022823D828688007F7D492
:10195000207800072CD57948A169D9B1C0F800904A
:10196000FFF720FD074604E0FFF71CFDC01B02281F
:101970000FD8686A8007F7D571484FF4FA510068AC
:10198000B0FBF1F0009000BF0098411E0091FAD228
:101990000EE080E0C0F80080FFF704FD074604E099
:1019A000FFF700FDC01B022875D8686A8007F7D4CE
:1019B0002078400760D5E8690027C00008D4E869AE
:1019C00040F08050E861E869012700F08050009005
:1019D0005C480168C90513D40168834641F48071ED
:1019E0000160FFF7DFFC824606E000BFFFF7DAFC8C
:1019F000A0EB0A0064284ED8DBF80000C005F5D53E
:101A0000E06801280AD008B1052813D0286A20F020
:101A100001002862286A20F0040002E0286A40F0F1
:101A200001002862E06841F2883B98B1FFF7BAFCF8
:101A300082460BE0286A40F004002862EEE700BF0F
:101A4000FFF7B0FCA0EB0A0159455AD8286A800775
:101A5000F6D50CE0FFF7A6FC824605E0FFF7A2FCF6
:101A6000A0EB0A0159454CD8286A8007F6D41FB16B
:101A7000E86920F08050E861E06988B36968C1F3E3
:101A80008101022944D00228C6F8608004D0FFF703
:101A900089FC044638E034E0FFF784FC074604E0A4
:101AA000FFF780FCC01B02282BD828688001F7D4E0
:101AB000206AB0F5803F05D16868A16820F4003045
:101AC00008436860D4E908010843696821F4741187
:101AD00008436860C6F86090FFF764FC044606E0BF
:101AE00025E000BFFFF75EFC001B022809D828682C
:101AF0008001F7D51BE000BFFFF754FC001B022854
:101B000002D90320BDE8F88F28688001F4D40EE0E4
:101B10000128F7D06868226A00F48031914204D12C
:101B2000616A00F47010884201D00120EAE70020C9
:101B3000E8E70000001002400000424280044242F8
:101B4000180000200070004010B5401EB0F1807FEA
:101B500001D3012010BD4FF0E02460610F21601718
:101B600001F09FF90020A06107202061002010BD36
:101B70007047704710B590F83C20012A22D001220E
:101B800080F83C20CA688C6822F4407222434C687A
:101B900022F4806222430C6822F4006222430C6922
:101BA00022F4805222434C6922F400522243C96934
:101BB000002322F480420A4301684A6480F83C30E2
:101BC000002010BD022010BD70B590F83C20012A05
:101BD00026D0012480F83C40022280F83D20036892
:101BE0005A689D6822F070060A6832435A600D4BAD
:101BF00002689A4208D0B2F1804F05D00A4B9A424F
:101C000002D00A4B9A4204D1496825F08003194357
:101C1000916080F83D40002180F83C10084670BD7E
:101C2000022070BD002C014000040040000800406C
:101C300010B5040003D094F83D0010B107E0012076
:101C400010BD002084F83C00204600F01FF8022060
:101C500084F83D00211D206800F0BCFE012084F8BE
:101C6000460084F83E0084F83F0084F8400084F881
:101C7000410084F8420084F8430084F8440084F86A
:101C8000450084F83D00002010BD000008B5174A4B
:101C900001681748914207D1816941F4006181616F
:101CA000806900F400601EE0B1F1804F14D0114A49
:101CB000914219D1C16941F00401C161C06900229A
:101CC00000F00400009011461E20FFF7D7FBBDE88E
:101CD00008401E20FFF7C4BBC16941F00101C1618A
:101CE000C06900F00100009008BD0000002C014018
:101CF000001002400008004090F83D10012901D07A
:101D000001207047022180F83D100168CA6842F046
:101D10000102CA6000680B49884208D0B0F1804FC8
:101D200005D00949884202D00849884204D1816817
:101D300001F00701062903D0016841F001010160AB
:101D400000207047002C01400004004000080040C3
:101D500070B5044690F83C000025012817D00126F4
:101D600084F83C60022084F83D002068826822F0FC
:101D7000770222F47F4282600868502838D00DDC58
:101D800020284FD005DC90B3102811D14AE0022062
:101D900070BD302846D040280AD13BE060282FD0C3
:101DA00070280DD0B0F5805F03D0B0F5005F12D081
:101DB000012584F83D60002084F83C00284670BD71
:101DC000CB68D1E90121206800F047FE20688168D6
:101DD00041F0770109E0CB68D1E90121206800F0EA
:101DE0003CFE2068816841F480418160E1E719E0B0
:101DF000CA684968206800F0E5FE5021206806E0C6
:101E0000CA684968206800F0EEFE6021206800F092
:101E10002EFECEE7CA684968206800F0D3FE402154
:101E20002068F4E7226801461046F0E7704770B575
:101E30000446006801694FF00005C943890715D4BD
:101E4000C168C943890711D4E91E016101202077C7
:101E5000206880698007204602D0FFF7E7FF04E092
:101E600000F0EEF8204600F080F92577206801693F
:101E7000C943490717D4C168C943490713D46FF050
:101E800004010161022020772068806910F4407FFE
:101E9000204602D0FFF7CAFF04E000F0D1F8204648
:101EA00000F063F9257720680169C943090716D452
:101EB000C168C943090712D46FF008010161042009
:101EC00020772068C0698007204602D0FFF7AEFF68
:101ED00004E000F0B5F8204600F047F925772068C7
:101EE0000169C943C90617D4C168C943C90613D4D7
:101EF0006FF010010161082020772068C06910F49C
:101F0000407F204602D0FFF791FF04E000F098F8F0
:101F1000204600F02AF9257720680169C943C907DE
:101F200008D1C168C943C90704D1891E016120468F
:101F300000F06AF920680169C943090609D4C1683B
:101F4000C943090605D46FF0800101612046FFF7FF
:101F50000FFE20680169C943490609D4C168C94315
:101F6000490605D46FF040010161204600F04DF9AB
:101F700020680169C94389060BD4C168C943890631
:101F800007D46FF0200101612046BDE87040FFF7E3
:101F9000F0BD70BD10B586B0002100910191029195
:101FA0000391224B02682249022422489A4210D10E
:101FB0008A6942F004028A618969039401F004018C
:101FC0000491C114CDE900146946FFF7E9F806B0A1
:101FD00010BDB2F1804FFAD18A6942F004028A61E1
:101FE0008A6902F0040204928A6942F008028A6156
:101FF0008969039401F0080104914FF40041CDE98F
:1020000000146946FFF7CCF80820CDE900046946C2
:1020100009480394FFF7C4F80848416821F4407167
:1020200041F0E06141F480714160D0E7002C014053
:102030000010024000080140000C01400000014077
:10204000704770B5044690F83C0000260D46012804
:102050000FD0012084F83C006AB1042A1DD0082A60
:102060002FD00C2A3FD00126002084F83C003046B7
:1020700070BD022070BD206800F002FD20688169FB
:1020800041F0080181612068816921F004018161CA
:10209000206881692A69114311E0206800F018FD69
:1020A0002068816941F4006181612068816921F4BF
:1020B00080618161206881692A6941EA0221816128
:1020C000D2E7206800F030FD2068C16941F00801C6
:1020D000C1612068C16921F00401C1612068C16942
:1020E0002A69114311E0206800F04AFD2068C169A7
:1020F00041F40061C1612068C16921F48061C1615E
:102100002068C1692A6941EA0221C161ACE710B5C2
:10211000040003D094F83D0010B107E0012010BD89
:10212000002084F83C00204600F01EF8022084F8CD
:102130003D00211D206800F04DFC012084F8460080
:1021400084F83E0084F83F0084F8400084F84100A1
:1021500084F8420084F8430084F8440084F8450081
:1021600084F83D00002010BD7047704710B504464C
:10217000022249B104290ED0082913D094F8410055
:10218000012816D0012010BD94F83E000128F9D195
:1021900084F83E200FE094F83F000128F2D184F843
:1021A0003F2008E094F840000128EBD184F840205B
:1021B00001E084F841200122206800F041FC0F4931
:1021C0002068884203D1426C42F400424264206895
:1021D000884208D0B0F1804F05D00949884202D02A
:1021E0000849884204D1816801F00701062903D01B
:1021F000016841F001010160002010BD002C014088
:102200000004004000080040704770477047704766
:10221000F8B5016804460868CA684B6910F00F0FEA
:102220004FF0000559D003F0010602F490773743D0
:1022300065D0C10705D0D10503D5616C41F001011E
:102240006164410705D5D90703D0616C41F00201F3
:102250006164810705D5D90703D0616C41F00401A1
:102260006164010707D502F02001314303D0616C9E
:1022700041F008016164616C00293AD0800604D500
:10228000900602D5204600F0EFFC20684069616CA2
:10229000C0F38010090700D460B3204600F0BDFCF5
:1022A00020684069400621D52068143050E8001F9E
:1022B00021F0400140E80012002AF5D1E06BA8B1FE
:1022C0006D494163E06BFEF70DFF002811D0E06B14
:1022D000416B01B0BDE8F040084783060FD5930677
:1022E0000DD52046BDE8F84000F0BEBC2046FFF703
:1022F0008EFFF8BD2046FFF78AFF6564F8BD266BA8
:102300002023012E7CD1C6067AD5D60678D508685A
:102310004868009048694FF00206400640D5E16BDE
:10232000086840680004000CE8D0A28D8242E5D91C
:10233000E085886920282DD020680C3050E8001FE7
:1023400021F4807140E80012002AF5D12068143091
:1023500050E8001F21F0010140E80012002AF5D1E9
:102360002068143050E8001F21F0400140E80012BE
:10237000002AF5D184F84230256320680C3050E8FB
:10238000001F21F0100140E80012002AF5D1E06B97
:10239000FEF784FE6663A08DE18D401A81B22AE0CB
:1023A000A08DE18D401A81B2E08D0028A6D00029D1
:1023B000A4D022680C3252E8000F20F4907042E85A
:1023C0000007002FF5D12068143050E8002F22F0CC
:1023D000010240E80027002FF5D184F84230256340
:1023E00020680C3050E8002F22F0100240E8002353
:1023F000002BF5D166632046FFF708FFF8BDFFE725
:1024000005062BD5150629D594F841002128F5D1CC
:10241000A068B0F5805F01D12069B0B1206A411C8D
:102420002162216800784860E08C401E0004000CA6
:10243000E084E3D12068C16821F08001C160206898
:10244000C16841F04001C160D8E7206A0088C0F34C
:1024500008004860206A801C2062E5E74006CDD570
:102460005006CBD5CA68204622F04002CA6084F8E4
:10247000413000F0F0F8C1E70B2C000870B5040003
:1024800004D094F84100002510B106E0012070BD91
:1024900084F84050204600F023F8242084F84100BE
:1024A0002068C16821F40051C160204600F03EFC64
:1024B0002068016921F4904101612068416921F09F
:1024C0002A0141612068C16841F40051C16065641E
:1024D000202084F8410084F842006563002070BD2C
:1024E00030B585B0002400940194029403940068F0
:1024F000184988422CD11848816941F48041816192
:10250000816901F480410491816941F00401816194
:102510008069124D00F0040004904FF400700090A8
:10252000022001900320039069462846FEF738FEFA
:102530002815CDE90004694628460294FEF730FECE
:10254000002211462520FEF799FF2520FEF788FF7F
:1025500005B030BD003801400010024000080140C5
:1025600090F84230202B01D00220704721B11AB1DF
:102570000023036300F036BC0120704708B50068F3
:10258000084988420DD108490E2201F58C70FFF7E9
:10259000E7FF06480090831E9A1F05A10248FDF739
:1025A000A5FE08BD003801401C00002008000020E6
:1025B0002564202564202564000000002DE9F843EF
:1025C000044690F841001F4616460D46202802D0CA
:1025D0000220BDE8F8837DB176B10020606421203F
:1025E00084F84100FEF7DEFEA6848046E684A068FB
:1025F000B0F5805F02D003E00120EAE7206910B166
:102600002E4600250EE000260CE08021204600F03A
:1026100004FCA0B9AEB116F8010B21684860E08C4B
:10262000401EE084E08C43464FF0000200970028F3
:10263000EBD14FF04001204600F0EFFB30B103201A
:10264000C7E735F8020BC0F30800E6E7202084F85E
:1026500041000020BDE77047FEE700003EB50024C2
:1026600010480094019402940D4984600160047341
:102670000475012505614FF460214460C161FEF7D6
:102680003BFB08B172B6FEE70095CDE901546946FF
:102690000448FEF7AFFA002801D072B6FEE73EBD4F
:1026A000002401402C0000202DE9F04786B00024D2
:1026B0002D480094019402940394816941F0100123
:1026C0008161816901F010010491816941F0040187
:1026D0008161816901F004010491816941F008017F
:1026E00081618069DFF8848000F008004FF40055B4
:1026F0000490002229464046FEF74FFEDFF8709016
:10270000002204214846FEF748FEDFF868A06F105B
:10271000002239465046FEF740FE0095022601256C
:102720000396CDE9015469464046FEF739FD402045
:10273000CDE90004694650460294FEF731FD0420BD
:10274000CDE90005CDE9024669464846FEF728FD79
:1027500000970396CDE9015469465046FEF720FDE7
:1027600006B0BDE8F08700000010024000100140F4
:10277000000C01400008014010B596B000240F94F1
:1027800010941194129413941C2108A81494FDF72A
:1027900071FE20216846FDF76DFE2848264901603C
:1027A00041F63F71C0E901146321C0E9031444619B
:1027B0008461FFF73DFA08B172B6FEE74FF480502E
:1027C0000F900FA91D48FFF7C3FA08B172B6FEE7D4
:1027D0001A48FFF79CFC08B172B6FEE7139413A9E0
:1027E00016481494FFF7F0F908B172B6FEE76020BE
:1027F000CDE908040A940C940D940C2208A90F4802
:102800000E94FFF71EFC08B172B6FEE700944FF479
:102810000050CDE9044002940194039469460748AE
:102820000794FFF7A7F908B172B6FEE70348FFF770
:10283000B1FB16B010BD0000002C01405C00002070
:1028400010B58EB000240794089409940A940B9450
:102850001C2168460C94FDF70DFE22484FF0804184
:10286000016040F21F31C0E90114C721C0E903141F
:102870008461FFF7DDF908B172B6FEE74FF48050CE
:10288000079007A91748FFF763FA08B172B6FEE789
:102890001448FFF73CFC08B172B6FEE70B940BA995
:1028A00010480C94FFF790F908B172B6FEE760206B
:1028B000CDE900040294002269460A480494FFF717
:1028C000C0FB08B172B6FEE7042269460548FFF76F
:1028D000B8FB08B172B6FEE70248FFF75BFB0EB02B
:1028E00010BD0000A400002010B586B000241748D9
:1028F0000094019402940394049413490594016094
:102900000721C0E901144FF6FF71C0E90314846187
:10291000FFF78EF908B172B6FEE74FF480500090D1
:1029200069460A48FFF714FA08B172B6FEE7049444
:1029300004A906480594FFF747F9002801D072B6AC
:10294000FEE706B010BD000000080040EC000020CB
:10295000FEE7FEE770477047FEF72ABD30B593B03B
:1029600028216846FDF786FD14210AA8FDF782FD9F
:10297000002401200F94022504900095102011944A
:1029800005901094129407946846FEF74DFF08B125
:1029900072B6FEE70F20CDE90A040C940D940021D5
:1029A0000AA80E94FEF764FE08B172B6FEE70FA8FF
:1029B0000F951194FEF7E6FD002801D072B6FEE7F0
:1029C00013B030BD704700000148FFF730BA000077
:1029D000EC000020F0B50268164B174C174D4FF075
:1029E0008047984205D0B84203D0A04201D0A84207
:1029F00003D122F070064A683243984205D0B842AB
:102A000003D0A04201D0A84203D122F44074CA6886
:102A100022434C6922F08002224302608A68C2622B
:102A20000A688262984201D109690163012141610A
:102A3000F0BD0000002C01400004004000080040F0
:102A400010B501F01F030121046A99408C43046210
:102A5000016A9A401143016210BD10B5846842EAD0
:102A6000032224F47F440A432243826010BD82681B
:102A700022F070020A4342F00701816070470000B3
:102A800030B5036A026A22F0010202624268846978
:102A900024F073050C682C4323F002058B682B434C
:102AA0000A4DA8420BD123F00805CB6822F44072EE
:102AB0002B434D6923F0040315438A692A4342607E
:102AC000846149684163036230BD0000002C01400D
:102AD00030B5026A036A23F0100303624368846915
:102AE0000D6824F4E64444EA05248D6822F02002AF
:102AF00042EA05120B4DA8420ED1CD6822F08002A9
:102B000042EA05124D6923F4406343EA85038D6967
:102B100022F0400243EA850343608461496881638F
:102B2000026230BD002C014030B5036A026A22F413
:102B3000807202624268C46923F4007324F0730552
:102B40000C682C438D6843EA05230C4DA8420ED136
:102B5000CD6823F4006343EA05234D6922F4405213
:102B600042EA05128D6923F4806342EA051242604D
:102B7000C4614968C163036230BD0000002C01409C
:102B800030B5046A026A22F4805202624268C36964
:102B90000D6823F4E64343EA05238D6824F40054CA
:102BA00044EA0534064DA84204D14D6922F480421E
:102BB00042EA85124260C36149680164046230BD23
:102BC000002C014010B5036A046A24F00104046279
:102BD000846924F0F00444EA021423F00A020A4350
:102BE0008461026210BD10B5036A046A24F0100407
:102BF0000462846923F0A00324F4704444EA02329E
:102C000043EA01118261016210BD10B5406A0021E2
:102C1000C185C184FFF7FBFA10BD01680C3151E892
:102C2000002F22F4907241E80023002BF5D10168B7
:102C3000143151E8002F22F0010241E80023002B5B
:102C4000F5D1016B012909D101680C3151E8002F40
:102C500022F0100241E80023002BF5D1202180F85A
:102C6000421000210163704708B590F842102229F4
:102C700001D0022008BD82684FF480539A4201D1EE
:102C8000016921B1816A9A421BD04AB10AE0026807
:102C9000816A5268C2F308020A80816A891C08E0CE
:102CA000026972B10268526802F07F020A70816A9A
:102CB000491C8162C18D491E0904090CC18503D0DC
:102CC0001BE002685268F1E70168CA6822F020023E
:102CD000CA600168CA6822F48072CA6001684A69E1
:102CE00022F001024A61202180F842100021416354
:102CF000026B012A03D0FFF741FC002008BD0163ED
:102D000001680C3151E8002F22F0100241E8002345
:102D1000002BF5D101680A68D20602D50A68496815
:102D20000091818DFFF772FAE7E7000070B5044665
:102D300000680169E26821F4405111430161216991
:102D4000A0680843616908432168CA6841F20C63BE
:102D50009A430243CA6020684169A26921F4407124
:102D6000114341611E492068884202D1FEF726FDC9
:102D700001E0FEF713FD00EBC00101EB00126068FB
:102D800064218000B2FBF0F3B3FBF1F36FF018069F
:102D90007343B2FBF0F5B2FBF0F605EB830532238B
:102DA00003EB0515B5FBF1F5B6FBF1F605F0F00503
:102DB00005EB0615B2FBF0F6B2FBF0F0B0FBF1F05C
:102DC0006FF01802504306EB800003EB0010B0FBDD
:102DD000F1F0216800F00F002844886070BD000009
:102DE0000038014081628285C28500214164222130
:102DF00080F84210016921B10168CA6842F480720A
:102E0000CA6001684A6942F001024A610068C1680B
:102E100041F02001C160002070472DE9F041984643
:102E200017460E460446069D27E0681C25D02DB1A6
:102E3000FEF7B8FAA0EB0800A8421ED920680C30B3
:102E400050E8001F21F4D07140E80012002AF5D1AB
:102E50002068143050E8001F21F0010140E8001202
:102E6000002AF5D1202084F8410084F84200002097
:102E700084F840000320BDE8F0812068006836EA4D
:102E8000000004D00020B842CFD00020F3E701209A
:102E9000F9E700000148FFF7BBB90000340100204A
:102EA000FEE70907090E002804DB00F1E02080F8A6
:102EB0000014704700F00F0000F1E02080F8141DAE
:102EC00070470000044900220B685A6209684A6A88
:102ED0008242FCD370470000EC0000208AB0FEF76D
:102EE0006FFAFFF73BFDFFF7DFFBFFF7B7FB574834
:102EF00055494FF0000B01604FF4E131C0E9011B6F
:102F00000C22C0F80CB0C0E904B2C0F818B0C0F888
:102F10001CB0FFF7B3FA08B172B6FEE7FFF72CFC5E
:102F2000FFF7E2FCFFF78CFC48480C21D838FFF78C
:102F30001DF9464800219038FFF718F9434804214D
:102F40009038FFF713F941484838FEF7D5FE0E22B6
:102F50003F493E48FFF704FB202101A8FDF78AFA0C
:102F6000DFF8ECA03B4E0AF1400A3B4CB7140AF1E3
:102F7000480900BF4FF400513848FEF706FA4021D7
:102F80003046FEF7FDF98046012239463046FEF70D
:102F900004FA4FF48C70FFF795FF0120FDF706FE51
:102FA00009900220FDF702FE054600223946304610
:102FB000FEF7F3F92820FFF785FFB8F1010F0FD0D6
:102FC000E1880998884202D22089854215D3DAF82F
:102FD000000021880164D9F800106088486318E077
:102FE000DAF8000021880164D9F800206188516373
:102FF000D9F80000A18881630BE0DAF80010C1F86D
:1030000040B0D9F800300A225A63D9F80010C1F84C
:1030100038B020880A2804D1012204211048FEF784
:10302000BCF9009542460FA101A8099BFDF7DAF80B
:103030000A23202201A90548FFF7C0FA4FF47A704D
:10304000FEF79CF896E700000038014034010020AC
:103050001C0000200008014000000020001001407A
:10306000000C014025642025642025640000000038
:1030700010B500290AD00878002807D00548784400
:10308000FDF7E2FC002801D0002010BD0248784482
:1030900010BD0000860000007E000000000000005F
:1030A0000100000000000000010202030405060701
:1030B00008090A0B0C0D0E0F101001020203040583
:1030C000060708090A0B0C0D0E0F10100000000077
:1030D00000000000010203040607080900000000C8
:1030E0000102030414320008000000201C0000004C
:1030F00028010008303200081C000020C40700002E
:10310000440100081001000043000000F8FFFFFF29
:1031100000404040404040404040414141414140EA
:10312000404040404040404040404040404040409F
:10313000400502020202020202020202020202022E
:103140000220202020202020202020020202020233
:10315000020290909090909010101010101010108B
:103160001010101010101010101010100202020297
:1031700002028888888888880808080808080808DB
:1031800008080808080808080808080802020202D7
:1031900040000000000000000000000000000000EF
:1031A000000000000000000000000000000000001F
:1031B000000000000000000000000000000000000F
:1031C00000000000000000000000000000000000FF
:1031D00000000000000000000000000000000000EF
:1031E00000000000000000000000000000000000DF
:1031F00000000000000000000000000000000000CF
:1032000000000000000000000000000000000000BE
:103210000000000064001900C80000000000000069
:103220000100000010000000000000000024F40075
:04000005080000ED02
:00000001FF
